:100000000C946B000C9493000C9493000C9493004C
:100010000C9493000C9493000C9493000C94930014
:100020000C9493000C9493000C9493000C94930004
:100030000C9493000C9493000C9493000C949300F4
:100040000C94FC150C9493000C94CA150C94A415F4
:100050000C9493000C9493000C9493000C949300D4
:100060000C9446160C9493007C3C3E5E2B3D3F2F37
:100070005B5D3B2C2A225C000000000800020100AE
:100080000003040700000000000000001F1C1F1EEA
:100090001F1E1F1F1E1F1E00000000250028002B12
:1000A0000000000000240027002A000404040404C7
:1000B0000404040202020202020303030303030115
:1000C00002040810204080010204081020010204EC
:1000D00008102000651711241FBECFEFD8E0DEBF47
:1000E000CDBF26E0AEE4B2E001C01D92A132B2075E
:1000F000E1F712E0A0E0B1E0E4E4F2E402C0059030
:100100000D92AE34B107D9F710E0CBE6D0E004C0D1
:100110002197FE010E94C71FCA36D107C9F70E9466
:10012000B9170C9420210C94000090E0FC01E154DC
:10013000FF4F249185559F4FFC018491882399F0AE
:1001400090E0880F991FFC01EF55FF4FA591B491E6
:10015000FC01E956FF4F859194918FB7F894EC918B
:10016000E22BEC938FBF089508950895DC01ED9183
:10017000FC910190F081E02D0994AF92BF92CF9253
:10018000DF92EF92FF920F931F93CF93DF936C0157
:100190007B018B01040F151FEB015E01AE18BF0838
:1001A000C017D10759F06991D601ED91FC910190EA
:1001B000F081E02DC6010995892B79F7C501DF9102
:1001C000CF911F910F91FF90EF90DF90CF90BF9054
:1001D000AF900895FC01538D448D252F30E0842F7E
:1001E00090E0821B930B541710F0CF96089501975F
:1001F0000895FC01918D828D981761F0A28DAE0F4C
:10020000BF2FB11D5D968C91928D9F5F9F73928FD2
:1002100090E008958FEF9FEF0895FC01918D828DFE
:10022000981731F0828DE80FF11D858D90E00895CB
:100230008FEF9FEF0895FC01918D228D892F90E023
:10024000805C9F4F821B91098F739927089589E2E3
:1002500095E00E941B0121E0892B09F420E0822F08
:10026000089580E090E0892B29F00E9427018111F8
:100270000C9400000895FC01A48DA80FB92FB11DA6
:10028000A35ABF4F2C91848D90E001968F739927CC
:10029000848FA689B7892C93A089B1898C918370AA
:1002A00080648C93938D848D981306C00288F389A3
:1002B000E02D80818F7D80830895EF92FF920F93D0
:1002C0001F93CF93DF93EC0181E0888F9B8D8C8D02
:1002D00098131AC0E889F989808185FF15C09FB7F6
:1002E000F894EE89FF896083E889F98980818370B9
:1002F000806480839FBF81E090E0DF91CF911F9168
:100300000F91FF90EF900895F62E0B8D10E00F5F88
:100310001F4F0F731127E02E8C8D8E110CC00FB65E
:1003200007FCFACFE889F989808185FFF5CFCE01F6
:100330000E943B01F1CFEB8DEC0FFD2FF11DE35A35
:10034000FF4FF0829FB7F8940B8FEA89FB89808179
:100350008062CFCFCF93DF93EC01888D8823B9F0F3
:10036000AA89BB89E889F9898C9185FD03C08081C0
:1003700086FD0DC00FB607FCF7CF8C9185FFF2CF3D
:10038000808185FFEDCFCE010E943B01E9CFDF9157
:10039000CF91089590E0FC01E858FF4F2491FC01B3
:1003A000E154FF4F3491FC01E555FF4FE491EE23FA
:1003B000C9F0222339F0233001F1A8F4213019F1DA
:1003C000223029F1F0E0EE0FFF1FE956FF4FA59113
:1003D000B4918FB7F894EC91611126C030953E230B
:1003E0003C938FBF08952730A9F02830C9F02430FE
:1003F00049F7809180008F7D03C0809180008F77C6
:1004000080938000DFCF84B58F7784BDDBCF84B548
:100410008F7DFBCF8091B0008F778093B000D2CFDB
:100420008091B0008F7DF9CF3E2BDACF3FB7F894A3
:1004300080919E0290919F02A091A002B091A10292
:1004400026B5A89B05C02F3F19F00196A11DB11D2F
:100450003FBFBA2FA92F982F8827BC01CD01620F6B
:10046000711D811D911D42E0660F771F881F991F26
:100470004A95D1F708958F929F92AF92BF92CF92F3
:10048000DF92EF92FF924B015C010E9416026B011A
:100490007C010E9416026C197D098E099F09683E35
:1004A000734081059105A8F321E0821A9108A10803
:1004B000B10888EEC80E83E0D81EE11CF11C81143F
:1004C0009104A104B10429F7FF90EF90DF90CF9041
:1004D000BF90AF909F908F9008952FB7F894609140
:1004E0009A0270919B0280919C0290919D022FBF75
:1004F000089520917602260F3327331F21323105CC
:10050000ECF42091FF04FC0190E080E0243069F0DD
:1005100082E00895A09176022191AC014A5A5D4F84
:10052000A40FB52FB11D2C930196861798F38091D7
:100530007602680F6093760280E0089581E0089566
:100540001092FF0481E08093FE041092D90461E0D0
:1005500082E10E94CA0161E083E10E94CA01E9EBE5
:10056000F0E080818E7F808380818D7F808388E42E
:100570008093B80085E48093BC000895CF93DF9307
:1005800091E0909355028823B9F0C091B800D091C2
:10059000BA008091BC008A7B8093BC0060E082E15D
:1005A0000E94CA0160E083E10E94CA010E94A00289
:1005B000D093BA00C093B800DF91CF9108958F9285
:1005C0009F92AF92BF92CF92DF92EF92FF920F93E2
:1005D0001F93CF93DF93D0912805D13208F0D7C075
:1005E000182FC09127050E9416026B017C01809193
:1005F000FF0481116BC082E08093FF041093FE041E
:100600008FEF8093FD041092FC04D093FB04A7E0CD
:10061000B5E0EBEDF4E080E0D81391C01092DA047D
:100620008091DA04CC0FC82BC093DA048091D904EE
:10063000813009F088C01092D9040E9416026B0123
:100640007C018091DA048093BB0080910105909138
:100650000205A0910305B0910405892B8A2B8B2BF1
:10066000A1F00E941602009101051091020520914F
:100670000305309104056C197D098E099F09061741
:1006800017072807390708F442C08091BC0083FD92
:10069000D8CF85EC8093BC000E9416026B017C01D0
:1006A0008091FF04823009F450C08091FD048F3F97
:1006B00009F46FC08091FD04803209F46CC0809110
:1006C000FD04803309F469C084E026C080910105EF
:1006D00090910205A0910305B0910405892B8A2B06
:1006E0008B2B09F484CF0E94160280900105909014
:1006F0000205A0900305B09004056C197D098E09D0
:100700009F0986169706A806B90608F070CF809153
:1007100000050E94BE0285E0109206051092280591
:1007200010920505DF91CF911F910F91FF90EF90EF
:10073000DF90CF90BF90AF909F908F9008959D9144
:1007400091938F5F69CF85EEA5CF80910105909140
:100750000205A0910305B0910405892B8A2B8B2BF0
:1007600009F49ECF0E941602009101051091020526
:1007700020910305309104056C197D098E099F09AC
:10078000061717072807390708F08ACFC0CF81E07E
:10079000C3CF80E0C1CF82E0BFCF83E0BDCF08955B
:1007A000E091A8028091A702E81730F4F0E0E75545
:1007B000FD4F808190E008958FEF9FEF0895909115
:1007C000A8028091A7022FEF3FEF981748F4E92F76
:1007D000F0E0E755FD4F208130E09F5F9093A80245
:1007E000C90108958091A7029091A802891B990BD5
:1007F0000895CF92DF92EF92FF920F931F93CF93C2
:10080000DF937C01CB018A0120910505222389F029
:10081000EB016B01C40ED51ECC15DD0569F06991A5
:10082000D701ED91FC910190F081E02DC701099570
:10083000F3CF642F0E947902C801DF91CF911F91FD
:100840000F91FF90EF90DF90CF900895CF93DF93BB
:100850001F92CDB7DEB76983209105052223F9F0F9
:1008600020912805203258F021E030E0FC0133834C
:10087000228390E080E00F90DF91CF9108958091E6
:100880000605E82FF0E0E95FFA4F998190838F5FCA
:10089000809306058093280581E090E0ECCF61E02D
:1008A000CE0101960E947902F7CF90E080E0089592
:1008B0008FB7F89480914F028FBF089561E0FC01DB
:1008C00084810E94CA0180914E02811110924E02D1
:1008D00008958EBD00000DB407FEFDCF8EB50895BE
:1008E0008FEF0C9469040F931F93CF93DF93EC0168
:1008F0000E946D028B010E9470048F3F69F00E947C
:100900006D02601B710B6C177D07A8F380E0DF910F
:10091000CF911F910F91089581E0F9CF8CBD9DBDBE
:100920000895CF93DF93EC0180914E02811109C0AD
:1009300081E080934E028091D2059091D3050E9470
:100940008E0460E08C81DF91CF910C94CA018F926C
:100950009F92AF92BF92FF920F931F93CF93DF931B
:10096000EC01F62E49015A018E81882389F08F818E
:1009700098859C012F5F3F4F38872F8382309240AC
:1009800018F40E947004F3CFCE010E945E041E8210
:10099000CE010E9491048CE291E00E9473048F2D9D
:1009A00080640E94690408E110E0D501C401002EB2
:1009B00004C0B695A795979587950A94D2F70E949B
:1009C000690408501109083F8FEF180771F785E98E
:1009D000FF2021F028E087E8F2128FEF0E946904DF
:1009E00010E00E9470048A8787FF04C01F3F11F047
:1009F0001F5FF7CFDF91CF911F910F91FF90BF90B5
:100A0000AF909F908F900895AF92BF92CF92DF9258
:100A1000EF92FF920F931F93CF93DF93EC01690145
:100A2000C801820F931F8130924050F58E81882338
:100A300079F088819981AA81BB8184179507A607DF
:100A4000B70731F48F819885C816D90608F042C0DF
:100A5000488359836A837B838B85833039F089E0AF
:100A6000440F551F661F771F8A95D1F79A01AB0176
:100A700061E1CE010E94A704882389F083E08D8381
:100A8000CE010E945E0480E0DF91CF911F910F9113
:100A9000FF90EF90DF90CF90BF90AF9008950E94AD
:100AA0006D025B010E9470048A878F3F69F40E9487
:100AB0006D026A197B096D327140A0F38FE08D835E
:100AC000CE010E945E04DCCF8E3F89F418861F821F
:100AD00081E08E838F8198858C159D0550F40E944E
:100AE00070048F819885019698878F83F3CF8DE06E
:100AF000E6CF6701E00EF11E0E947004F6018193BB
:100B00006F01EE15FF05C1F78F819885080F191F3A
:100B100018870F838985882319F001151240A0F0EA
:100B20008E81882389F08F8198859C012F5F3F4FAC
:100B300038872F838230924018F40E947004F3CFDC
:100B4000CE010E945E041E8281E09ECFCF92DF9292
:100B5000EF92FF920F93CF93DF93EC01690182E153
:100B6000411551056105710599F08B85833039F088
:100B700089E0440F551F661F771F8A95D1F79A01A8
:100B8000AB0168E1CE010E94A704882319F084E03C
:100B90008D832DC08EEF0E94690476018EEFD81AE6
:100BA000F70181917F010E946904EC14FD04C1F7F3
:100BB0008FEF0E9469048FEF0E9469040E94700405
:100BC0008A878F71853071F4011116C0CE010E94A1
:100BD0005E0481E0DF91CF910F91FF90EF90DF9065
:100BE000CF90089581E18D83CE010E945E04CE01F5
:100BF0000E945E0480E0EECF88E592E00E947304DC
:100C0000811102C085E1C4CF20E030E0A9016DE090
:100C1000CE010E94A704882311F084E1B9CF0E947D
:100C200070048111FACFD2CF0F93409151025091AD
:100C300052026091530270915402411551056105B1
:100C4000710599F0082F29ED32E08091D70290913B
:100C5000D8020E94A605882349F0109251021092F2
:100C60005202109253021092540281E00F910895A3
:100C70000F93CF93C82F80915002811105C0C1E01E
:100C80008C2FCF910F910895409100015091010157
:100C900060910201709103010C2F29ED32E08091E7
:100CA000D7029091D8020E94A605811102C0C0E02F
:100CB000E7CFCC2321F381E00E9414068823B9F307
:100CC00010925002DDCF8F929F92AF92BF92EF921F
:100CD000FF920F931F93CF934B015C01C42F809120
:100CE000000190910101A0910201B09103018815CA
:100CF0009905AA05BB0551F181E00E9438068111D2
:100D00000BC080E0CF911F910F91FF90EF90BF90AB
:100D1000AF909F908F90089589EDE82E82E0F82E95
:100D200000E012E030E020E0B501A4018091D7029C
:100D30009091D8020E940405882319F38092000143
:100D400090920101A0920201B092030140915002E1
:100D50004C2B4093500281E0D5CFCF93DF93EC0131
:100D60006E857F858889998941E00E946306882382
:100D700051F08A8920E2829FC001112487529D4F41
:100D8000DF91CF91089590E080E0FACF8F929F920B
:100D9000AF92BF92CF92DF92EF92FF92CF9324ED6A
:100DA00035E03093D8022093D702882309F46DC030
:100DB00040E060E070E0CB010E94630681110BC04F
:100DC00080E0CF91FF90EF90DF90CF90BF90AF90F9
:100DD0009F908F900895809197048F7789F78091E5
:100DE000A3049091A404A091A504B091A604843614
:100DF0009105A105B10520F3C0909F04D090A004F7
:100E0000E090A104F090A204C114D104E104F10423
:100E1000B9F240E0C701B6010E946306882381F25F
:100E20008091E4029091E5028115924049F6A091EB
:100E3000E902AA2329F26091E7027091E8026115A4
:100E4000710509F4BDCF2091E602222309F4B8CF41
:100E5000A093F2052093E40590E080E030E0E1E02B
:100E6000F0E0C82FAF01082E02C0440F551F0A94AE
:100E7000E2F72417350769F041E0480F0196893001
:100E8000910579F74093ED059BCFC12CD12C7601CC
:100E9000C0CF8093ED052091EF023091F00250E039
:100EA00040E02115310541F42091FD023091FE0210
:100EB0004091FF02509100032093E5053093E60531
:100EC0004093E7055093E80546015701860E971EAB
:100ED000A11CB11C8092F3059092F405A092F50537
:100EE000B092F605E091EA02F091EB02F093F90579
:100EF000E093F805B0E00E94E51EDC01CB01880D0F
:100F0000991DAA1DBB1D8093FA059093FB05A09324
:100F1000FC05B093FD0525E0EE0FFF1F2A95E1F7D4
:100F2000E150FE4FEF2FFF27E6958E0F9F1FA11D6B
:100F3000B11D8093EE059093EF05A093F005B0935B
:100F4000F1058090EC029090ED02B12CA12C81145F
:100F5000910441F48090F9029090FA02A090FB0273
:100F6000B090FC02C81AD90AEA0AFB0AC80CD91CBC
:100F7000EA1CFB1C04C0F694E794D794C794CA9566
:100F8000D2F7C092E905D092EA05E092EB05F09223
:100F9000EC0585EFC8168FE0D806E104F10428F4CB
:100FA0008CE08093F70581E00CCF80E125EFC2163D
:100FB0002FEFD206E104F104A0F380910503909194
:100FC0000603A0910703B09108038093FA0590935C
:100FD000FB05A093FC05B093FD0580E2E2CF4F92A4
:100FE0005F926F927F928F929F92AF92BF92CF92B9
:100FF000DF92EF92FF920F931F93CF93DF93EC0159
:10100000423051056105710590F480E0DF91CF9188
:101010001F910F91FF90EF90DF90CF90BF90AF9016
:101020009F908F907F906F905F904F9008958985EB
:101030009A85AB85BC850196A11DB11D84179507C6
:10104000A607B70710F3CB88DC88ED88FE888F8968
:10105000803109F042C0BB27A72F962F852F48016A
:1010600059012A013B01C80ED91EEA1EFB1E8091C0
:10107000000190910101A0910201B0910301C816F5
:10108000D906EA06FB0699F58F898031C1F5B301CF
:10109000A201552766277727440F551F47525D4FFA
:1010A000FA01918280828091500281608093500287
:1010B0008A89823080F08D819E81AF81B8858C0DC8
:1010C0009D1DAE1DBF1D8093510290935202A093AF
:1010D0005302B093540281E099CFDB01CA01E7E0EB
:1010E000B695A79597958795EA95D1F7B8CF40E043
:1010F000C701B6010E9463068111C6CF86CFB30136
:10110000A2014F77552766277727440F551F440FB5
:10111000551F47525D4FFA0180829182A282B382AD
:10112000C2CF8F929F92AF92BF92CF92DF92EF92F7
:10113000FF920F931F93CF93DF93FC0181859285DC
:10114000A385B4850196A11DB11D84179507A60737
:10115000B70770F480E0DF91CF911F910F91FF905E
:10116000EF90DF90CF90BF90AF909F908F900895B9
:1011700083889488A588B6888789803189F5BB27BC
:10118000A72F962F852FE9016A017B018F01BC01F2
:10119000CD01680D791D8A1D9B1D809000019090E6
:1011A0000101A0900201B090030186169706A806DF
:1011B000B90601F5F8018789803111F5DD24EE24A7
:1011C000FF24F601EE0FFF1FE752FD4F8081918152
:1011D000B0E0A0E088839983AA83BB8381E0BBCF82
:1011E000DB01CA01C7E0B695A79597958795CA9583
:1011F000D1F7C9CF40E00E9463068111DBCFAACFAF
:10120000E894C7F8DD24EE24FF24F601EE0FFF1F5B
:10121000EE0FFF1FE752FD4F80819181A281B381C4
:10122000BF70D8CF4F925F926F927F92AF92BF9272
:10123000CF92DF92EF92FF920F931F93CF93DF93A2
:1012400000D000D0CDB7DEB78C0149835A836B83C1
:101250007C835901C12CD12C7601412C82E0582E7F
:10126000612C712C49815A816B817C819E012F5F99
:101270003F4FC8010E949108882339F1F801858504
:10128000A301920104C0220F331F441F551F8A95EA
:10129000D2F7DA01C901C80ED91EEA1EFB1E498128
:1012A0005A816B817C818789803111F188EF9FEFB2
:1012B000AFEFBFE0481759076A077B0798F2F501BF
:1012C000C082D182E282F38281E00F900F900F9072
:1012D0000F90DF91CF911F910F91FF90EF90DF90D2
:1012E000CF90BF90AF907F906F905F904F90089598
:1012F00088EF9FEFA0E0B0E0DDCFCF93DF93FC015C
:101300002581222321F080E0DF91CF910895EC0127
:101310008091F705803159F582E08583178A108E18
:10132000118E128E8091F8059091F905B0E0A0E041
:1013300025E0880F991FAA1FBB1F2A95D1F7838B21
:10134000948BA58BB68B80EE95E09C8F8B8F81E084
:101350008C831E821F82188619861A861B861C861D
:101360001D861E861F86188A198A1A8ACDCF80325A
:1013700051F683E085834091FA055091FB05609119
:10138000FC057091FD05478B508F618F728F9F0117
:101390002D5E3F4F80EE95E00E9412098111D3CF60
:1013A000B2CF8F929F92AF92BF92CF92DF92EF9285
:1013B000FF920F931F93CF93DF93EC018D818111E7
:1013C0000EC080E0DF91CF911F910F91FF90EF90C1
:1013D000DF90CF90BF90AF909F908F9008950B8932
:1013E0001C892D893E89041715072607370748F3FE
:1013F0004A015B01823031F48A869B86AC86BD86C9
:1014000081E0E0CF81149104A104B10449F41E826B
:101410001F82188619861A861B861C861D86F0CFA9
:101420000A851B852C853D85EB8DFC8D858590E09F
:101430000996B901A8014150510961097109082EA5
:1014400004C076956795579547950A94D2F775012C
:101450006401E1E0CE1AD108E108F10804C0F69475
:10146000E794D794C7948A95D2F7C416D506E606B2
:10147000F70620F0012B022B032B11F58F89988D95
:10148000A98DBA8D8E839F83A887B9878E010A5F45
:101490001F4FC114D104E104F10409F4ADCF4E8112
:1014A0005F816885798598018B8D9C8D0E9491085C
:1014B00091E0C91AD108E108F1088111EACF81CF82
:1014C000C41AD50AE60AF70AE1CF3F924F925F921B
:1014D0006F927F928F929F92AF92BF92CF92DF9244
:1014E000EF92FF920F931F93CF93DF93CDB7DEB7A9
:1014F0002C970FB6F894DEBF0FBECDBF5C01DC01A8
:101500005B968D909C905C9716964D905D906D903B
:101510007C901997411451046104710409F468C066
:10152000BFEF4B1A5B0A6B0A7B0A312CF4018185F1
:101530009285A385B4859C01AD012F5F3F4F4F4F2E
:101540005F4F29873A874B875C87730162011D8251
:101550001E821F821886F40181859285A385B48539
:101560002D813E814F815885281739074A075B072F
:1015700008F056C089859A85AB85BC858C159D057C
:10158000AE05BF0550F482E0C82ED12CE12CF12C21
:1015900092E0492E512C612C712C9E012F5F3F4F00
:1015A000B701A601C4010E9491088823C9F189816D
:1015B0009A81AB81BC81892B8A2B8B2B09F1260167
:1015C00037019FEF491A590A690A790A2D813E812C
:1015D0004F8158852F5F3F4F4F4F5F4F2D833E8385
:1015E0004F8358873FEFC31AD30AE30AF30AB3CFF6
:1015F000F40140805180628073803324339496CF0D
:10160000C414D504E604F70409F70FEF1FEF2FEF1A
:101610003FE0B701A601C4010E94EF07811119C084
:1016200080E02C960FB6F894DEBF0FBECDBFDF91E1
:10163000CF911F910F91FF90EF90DF90CF90BF90CF
:10164000AF909F908F907F906F905F904F903F9062
:101650000895D50116964D915D916D917C911997E4
:10166000411551056105710539F097018601C401E5
:101670000E94EF078823A1F2D5011696CD92DD9244
:10168000ED92FC921997332051F0D701C6010196D3
:10169000A11DB11DF40180839183A283B383F50161
:1016A0008789908DA18DB28D892B8A2B8B2B39F454
:1016B0008481C78AD08EE18EF28E80688483F501A2
:1016C00084818062848381E0ACCF1F93CF93DF93CA
:1016D000FC012581222371F1162FEC01848187FF03
:1016E0001EC0CF010E94AD06FC01892B19F18D812E
:1016F000823040F48B899C89AD89BE89848F958F17
:10170000A68FB78F8F89988D938F828F8F89988DB1
:10171000A98DBA8DB58BA48B8C818F778C83111199
:1017200003C08C818F7E8C83812FDF91CF911F919D
:101730000C94380680E0DF91CF911F910895FF92BD
:101740000F931F93CF93DF93EC018D81813041F094
:1017500090E080E0DF91CF911F910F91FF9008956D
:101760008C8181FFF5CF82FD1BC00091D7021091C3
:10177000D802C8010E9491040E947004F82EC8018A
:101780000E945E048FEFF812E3CF8C8185FF1BC0AF
:1017900060E0CE010E94650B8C818F7D8C83D8CF59
:1017A0004B895C896D897E898A859B85AC85BD85E1
:1017B00084179507A607B707C1F2CE010E94D10989
:1017C0008111D3CFC5CF4091510250915202609107
:1017D000530270915402452B462B472B21F080E099
:1017E0000E941406B5CF80618C832A853B853170B9
:1017F00080E092E0821B930BADCFCF93DF93EC019F
:1018000061E00E94650B882311F01D8281E0DF9169
:10181000CF9108952F923F924F925F926F927F9255
:101820008F929F92AF92BF92CF92DF92EF92FF92F0
:101830000F931F93CF93DF9300D000D01F92CDB7AB
:10184000DEB77C015B01342E5D83DC0115968C9143
:101850001597813009F0CEC014962C9021FECAC095
:1018600022FCB4C0C32CDD8022947FE02722209488
:10187000B22DB1702B2ED7011A964D915D916D91BD
:101880007C911D97C114D10409F428C15B968D91F8
:101890009C915C97FC0174807A948A019B0169E0B9
:1018A00036952795179507956A95D1F770228A0185
:1018B0001170711020C001151105E9F416964D91B3
:1018C0005D916D917C9119974115510561057105E7
:1018D00009F099C057968D919D910D90BC91A02DC6
:1018E0000097A105B10509F0B0C0C7010E94650AC3
:1018F000882309F47FC080E092E0801B910B4601B1
:101900008C159D0508F44C01D7015B964D915C91B7
:101910005C9716968D919D910D90BC91A02D02978C
:10192000A109B109FA01258504C0880F991FAA1FD2
:10193000BB1F2A95D2F74685578560897189840F28
:10194000951FA61FB71F9C01AD01270D311D411D1D
:10195000511D29013A01811432E0930609F07BC040
:101960008091000190910101A0910201B0910301C9
:1019700084159505A605B70559F48FEF9FEFDC0197
:101980008093000190930101A0930201B0930301A1
:10199000022D9501B301A2018091D7029091D80246
:1019A0000E94A605882331F19EEFB91AC818D908FC
:1019B000F70182859385A485B585880D991DA11DA4
:1019C000B11D82879387A487B58755CFF7014389D7
:1019D00054896589768982859385A485B58548175C
:1019E00059076A077B0709F43DCFC7010E94D10957
:1019F000811138CF81E090E0D70113969C938E93AC
:101A0000129780E007C09E012F5F3F4F0E94910810
:101A1000811102C090E079C089819A81AB81BC813B
:101A2000F701238D348DF901278948EF5FEF60E0DE
:101A300070E0203121F048EF5FEF6FEF7FE0841717
:101A40009507A607B70708F050CFF701868397835D
:101A5000A087B18750CF0115110599F5D7011A96C6
:101A60004D915D916D917C911D9753968D919D91B6
:101A70000D90BC91A02D481759076A077B0708F104
:101A800081E00E943806882309F4B4CF4092000117
:101A90005092010160920201709203018091500204
:101AA000816080935002C80187529D4FD5019C01EF
:101AB000280D391DFC012E173F0759F04D91419318
:101AC000FACF41E0C301B2010E9463068111EBCF5E
:101AD00091CF281B390BA20EB31E68CFF701838963
:101AE0009489A589B68984179507A607B70738F49E
:101AF0008481438B548B658B768B80688483F7015C
:101B0000848183FD1AC0832D9D810F900F900F90CB
:101B10000F900F90DF91CF911F910F91FF90EF9059
:101B2000DF90CF90BF90AF909F908F907F906F90FD
:101B30005F904F903F902F90089561E0C7010E9401
:101B4000650B882309F456CFDECFCF93DF931F9226
:101B5000CDB7DEB7698341E050E0BE016F5F7F4FD4
:101B60000E940A0C0F90DF91CF910895FC01DB01D8
:101B700012968D919C9113979383828384E491E0D4
:101B80009183808314968C911497848315968C91FD
:101B90001597858316964D915D916D917C9119975E
:101BA00046835783608771871A964D915D916D9139
:101BB0007C911D9742875387648775871E964D9148
:101BC0005D916D917C91519746875787608B718BA2
:101BD00052968C915297828B53964D915D916D9157
:101BE0007C915697438B548B658B768B57964D9192
:101BF0005D916D917C915A97478B508F618F728F59
:101C00005B968D919C91948F838F08950895FC012C
:101C1000818D928D009719F061E00C94650B089509
:101C2000DC015996ED91FC913097B9F08389948944
:101C3000A589B6894285538564857585841B950B76
:101C4000A60BB70B811520E89207A105B10538F066
:101C50008FEF9FE7A0E0B0E0089590E080E0089566
:101C6000DC0159968D919C91009739F0DC01ED9142
:101C7000FC910480F581E02D099490E080E00895C6
:101C8000CF93DF93EC01E98DFA8D309749F481E031
:101C900090E09B838A8390E080E0DF91CF9108956C
:101CA00013821282898D9A8D0E940A0CE98DFA8D19
:101CB00022813381232B59F7F0CFCF93DF931F92EB
:101CC000CDB7DEB76983DC01ED91FC910280F38131
:101CD000E02D41E050E0BE016F5F7F4F09950F900E
:101CE000DF91CF9108952F923F924F925F926F9222
:101CF0007F928F929F92AF92BF92CF92DF92EF929C
:101D0000FF920F931F93CF93DF9300D01F92CDB715
:101D1000DEB7FC018581811118C08FEF9FEF0F9016
:101D20000F900F90DF91CF911F910F91FF90EF9047
:101D3000DF90CF90BF90AF909F908F907F906F90EB
:101D40005F904F903F902F900895848180FFE5CF62
:101D5000438954896589768982859385A485B5856B
:101D6000312C212C481759076A077B0719F02224C8
:101D70002394312C6F012101CE0101963C01DF013A
:101D80001696BB83AA834114510409F4C5C0F60119
:101D900042855385648575854A01F1E09F22D6010D
:101DA0005B968D919C915C978A019B01E9E0369549
:101DB000279517950795EA95D1F71596EC91E2309E
:101DC000E9F5FC01628D738D848D958D600F711F17
:101DD000821F931FA12C22E0B22EA818B9084A1422
:101DE0005B0408F45201F601248126FD04C0A1140D
:101DF000F2E0BF0671F40091000110910101209101
:101E0000020130910301061717072807390709F067
:101E10005EC040E00E946306882309F47ECFC401BF
:101E200087529D4FD3019C012A0D3B1DFC012E17AB
:101E30003F0709F46CC041914D93F9CFDC01149632
:101E4000BC90BA94B0228114910479F4B1100DC001
:101E5000452B462B472B69F5F6018789908DA18D7F
:101E6000B28D86839783A087B187D6015B96ED916B
:101E7000FC915C9716966D917D918D919C9119972F
:101E80006250710981099109258504C0660F771F89
:101E9000881F991F2A95D2F70685178520893189D1
:101EA000600F711F821F931F6B0D711D811D911D8E
:101EB00091CFD60116964D915D916D917C911997B8
:101EC0002A813B810E9491088111CFCF26CF7301D7
:101ED00085019401AB01BC018091D7029091D80299
:101EE0000E940405882309F418CF6A0C7B1CF601B4
:101EF00082859385A485B5858A0D9B1DA11DB11D85
:101F000082879387A487B5874A185B083CCF281B34
:101F1000390B620E731EEBCF2A94232809F0FDCEF5
:101F2000898190E0FCCEFC01818D928D009711F0AB
:101F30000C94730E8FEF9FEF08950F931F93CF9321
:101F4000DF93EC01898D9A8D10E000E0009799F005
:101F50000E94730E8C010F3F100769F0898D9A8DD6
:101F6000FC0142855385648575854150510961099D
:101F700071090E94D109C801DF91CF911F910F9182
:101F80000895CF93DF93FB0122813381DC01139607
:101F90003C932E93129744815581668177811496E4
:101FA0004D935D936D937C93179740855185628522
:101FB000738518964D935D936D937C931B971C9638
:101FC000EF012C969C01275E3F4F49914D93A2173C
:101FD000B307D9F7218D328DFC01328F218FDF912C
:101FE000CF9108958F929F92AF92BF92CF92DF923E
:101FF000EF92FF920F931F93CF93DF9300D000D007
:10200000CDB7DEB7FC018581813091F080E00F9083
:102010000F900F900F90DF91CF911F910F91FF9034
:10202000EF90DF90CF90BF90AF909F908F900895EA
:10203000848181FFEBCF83899489A589B689892B17
:102040008A2B8B2B09F45FC07F0140E050E0BA017E
:10205000CF010E94D1098823C9F2F701C38CD48C27
:102060008788908CA18CB28C82E090E0A0E0B0E0F8
:10207000F60180839183A283B3839E012F5F3F4F3C
:10208000B501A401C6010E949108882309F4BECFBE
:1020900000E010E09801B501A401C6010E94EF071D
:1020A000882309F4B3CF89809A80AB80BC80F60185
:1020B0008789803119F188EF9FEFAFEFBFE0881675
:1020C0009906AA06BB06C8F2F701178A108E118E70
:1020D000128E138A148A158A168A848180688483F2
:1020E00061E0C7010E94650B882309F48FCF40E0AF
:1020F00050E0BA01C7010E94D10989CF88EF9FEF54
:10210000A0E0B0E0DCCF81E082CFCF92DF92EF920F
:10211000FF921F93CF93DF93EC0180E2689FF00161
:102120001124E752FD4F9385917161F0842F8274E1
:1021300049F080E0DF91CF911F91FF90EF90DF9009
:10214000CF900895142F6A8B809100019091010126
:10215000A0910201B09103018E879F87A88BB98B54
:10216000C488D588F12CE12C7601DD24CC24CF8ADB
:10217000D88EE98EFA8E828D938DB0E0A0E0AC010E
:10218000BD014C295D296E297F294F8B588F698F9E
:102190007A8F83858871B1F4848D958DA68DB78DE6
:1021A0008B8B9C8BAD8BBE8B81E08D831F701C83D2
:1021B0001E821F82188619861A861B861C861D861B
:1021C00081E0B8CF803109F0B4CF9E012D5E3F4F42
:1021D0008B8D9C8D0E941209882309F4AACF84E07C
:1021E000E4CFFB0101900020E9F73197AF01461BD6
:1021F000570BDC01ED91FC910280F381E02D0994F5
:102200008F929F92AF92BF92EF92FF920F931F9384
:10221000CF93DF93CDB7DEB7A1970FB6F894DEBFAB
:102220000FBECDBF7C01FA01CB0119A2223008F408
:102230002AE08E010F5D1F4F822E912CB12CA12C14
:10224000BF01A50194010E94A51FF901CA016A30CE
:102250000CF5605DD8016E938D01232B242B252B6B
:1022600079F790E080E0109721F0BD01C7010E944E
:10227000F110A1960FB6F894DEBF0FBECDBFDF916F
:10228000CF911F910F91FF90EF90BF90AF909F90D3
:102290008F900895695CDECF462F50E070E060E0DB
:1022A0002AE00C940011CF93DF93BC0189E295E002
:1022B0000E94F110EC016CE471E089E295E00E946B
:1022C000F1108C0F9D1FDF91CF910895611571055D
:1022D00011F00C94F11090E080E00895EC018B0176
:1022E0006FE471E089E295E00E946611C8010E94E6
:1022F000531161E088810E94CA01FFCF85ED809370
:10230000BC008091010590910205A0910305B09158
:1023100004050796A11DB11D23E0B695A7959795D5
:1023200087952A95D1F72091BC0024FD03C0109217
:10233000FF04089540910105509102056091030545
:1023400070910405452B462B472B69F30097A10597
:10235000B10541F025E32A95F1F700000197A109A5
:10236000B109E1CF809100050C94BE023F924F92DB
:102370005F926F927F928F929F92AF92BF92CF9215
:10238000DF92EF92FF920F931F93CF93DF93CDB71E
:10239000DEB72B970FB6F894DEBF0FBECDBF7C0122
:1023A000DC0115968C91811115C0FE013196CE018C
:1023B0000C966F0130E23193E817F907E1F7DA0183
:1023C00030E087E09D91B92E992329F19E3239F4AE
:1023D0008A3011F480E0DAC038E08AE0F3CFE8E632
:1023E000F0E04491442321F031969413FACFF2CFD8
:1023F000831780F34FED490F4E3560F74FE9490FD2
:102400004A3118F440EEB42EB90EF601E30FF11D77
:10241000B0823F5FD7CF89818032E1F2322E8B01CB
:10242000FB01838D948DD7015C969C938E935B9773
:1024300016821782108611861286138614861586D8
:10244000F80182859385A485B5854389548965897A
:10245000768984179507A607B70708F04DC025E0D1
:10246000B695A795979587952A95D1F7F82FFF7080
:10247000AF2ED80115968C91823008F4ABCFC801ED
:102480000E94730E97FDA6CFF80182859385A485DF
:10249000B5854F96A11DB11D82879387A487B58707
:1024A000F0E2AF9EB001112467527D4F61157105B6
:1024B00009F490CFDB018C91882341F0853E09F02F
:1024C00058C0BB2029F0BB24B394BACFB1100EC0C2
:1024D000F701A28A8091000190910101A09102016F
:1024E000B091030186879787A08BB18BDB018C911C
:1024F0008111E9CFBB24B394832D8271823109F01D
:1025000069CFBB2009F45AC0C7010E94AD060097ED
:1025100009F460CF20E2FC0111922A95E9F72BE043
:10252000F601DC0101900D922A95E1F721E238E2F3
:10253000DC0151963C932E93509740E058E01F9653
:102540005C934E931E9753963C932E9352975996B5
:102550003C932E93589757965C934E93569781E0F1
:102560000E943806882309F435CF432DF70162898C
:102570000AC04BE050E0C6010E94F220892B09F00E
:102580005FCF432D6A2DC7010E9485102B960FB691
:10259000F894DEBF0FBECDBFDF91CF911F910F9199
:1025A000FF90EF90DF90CF90BF90AF909F908F9073
:1025B0007F906F905F904F903F900895F8018581D4
:1025C000823009F407CFC8010E94650A882309F404
:1025D00001CFD8015B96ED91FC915C9716968D909A
:1025E0009D90AD90BC901997B2E08B1A9108A1080C
:1025F000B108858504C0880C991CAA1CBB1C8A954F
:10260000D2F786859785A089B189880E991EAA1E62
:10261000BB1E848124013501480E511C611C711CB4
:1026200084149504A604B70409F1E1E04E1A510898
:102630006108710881E00E943806882309F4CACE37
:10264000E9EDF2E0119289ED94E08E179F07D1F742
:1026500040920001509201016092020170920301C8
:1026600080915002816080935002DACFD8015B964E
:10267000ED91FC91258580E092E0A0E0B0E004C0FF
:10268000880F991FAA1FBB1F2A95D2F7F80143890B
:10269000548965897689840F951FA61FB71F838B80
:1026A000948BA58BB68BD70152961C9289ED92E044
:1026B00031CF4F925F926F927F928F929F92AF92A3
:1026C000BF92CF92DF92EF92FF920F931F93CF931F
:1026D000DF93CDB7DEB7C754D1090FB6F894DEBF8C
:1026E0000FBECDBF5C013B0119A218A284E491E0AA
:1026F0009F8F8E8F1BA21C821B829A8389831E82CE
:1027000010E000E06E018EE1C80ED11C8EEFE82EC5
:1027100085E0F82EF501E00FF11F80818F3211F472
:102720000F5F1F4FD501A00FB11FFE01FB9690E078
:1027300080E04F012D912F3249F0222339F00F5FB5
:102740001F4F019621938C309105A1F7880D991D9B
:10275000FC011082F501E00FF11F80818F3211F42E
:102760000F5F1F4FF501E00FF11F408041E0411066
:1027700040E030E020E0B401C701F3010995582E94
:1027800081111FC0FEEFEF16F5E0FF0699F5512C01
:10279000852DC95BDF4F0FB6F894DEBF0FBECDBFEE
:1027A000DF91CF911F910F91FF90EF90DF90CF902D
:1027B000BF90AF909F908F907F906F905F904F9061
:1027C0000895442091F021E0A401B701C6010E94C0
:1027D000B611982E8EEFE81685E0F80679F0C7015D
:1027E0000E94FD0B91100FC0D2CF9EEFE91695E02D
:1027F000F90671F2C7010E94FD0BCACF992039F288
:10280000FE0131967F019E2D8F2D7601C92ED82E87
:1028100081CF1F93CF93DF93CDB7DEB76D970FB600
:10282000F894DEBF0FBECDBFAB011C821B8224E437
:1028300031E03A8329831E8221E0BC01CE0101965A
:102840000E94B61111E081110CC010E0812F6D962D
:102850000FB6F894DEBF0FBECDBFDF91CF911F91B1
:102860000895CE0101960E94FD0BF0CFCF93DF9328
:10287000CDB7DEB76D970FB6F894DEBF0FBECDBFF4
:10288000442399F1AB01BC011C821B8284E491E0DA
:102890009A8389831E8222E0CE0101960E94B6119E
:1028A00081110EC090E081E0911101C080E06D9631
:1028B0000FB6F894DEBF0FBECDBFDF91CF91089564
:1028C000CE0101960E94F20F882361F3CE0101969A
:1028D0000E94AD06009731F325EEFC0120831E8295
:1028E00081E00E943806982FDECF81E0E0CFEF92A2
:1028F000FF920F931F93CF93DF93EC017B018A012B
:102900001B821A8288EE93E0A0E0B0E08C839D8366
:10291000AE83BF838EE091E0998388838DE190E060
:102920000E94CD1F9A8F898F009779F02DE1F701D2
:10293000DC0101900D922A95E1F74CE050E0B801DE
:10294000CE010C960E941121188EDF91CF911F911C
:102950000F91FF90EF9008952F923F924F925F92C8
:102960006F927F928F929F92AF92BF92CF92DF929F
:10297000EF92FF920F931F93CF93DF93CDB7DEB704
:10298000C656D1090FB6F894DEBF0FBECDBF5C01AD
:102990003B0119A218A284E491E09F8F8E8F1BA2A5
:1029A0001C821B829A8389831E824E018EE1880ECF
:1029B000911CC4010E947D0963018E010F5F1F4FAE
:1029C000240118016FE270E0C6010E94FF20009709
:1029D00009F459C0F60120812F3271F4FFEFCF1AAC
:1029E000DF0A902F812F8201492E582E942D852D9C
:1029F0002801092F182FE6CF8C198D3008F08CE0B4
:102A0000E82EF12CA701B601CE01885A9F4F0E94F3
:102A10001121E8E5F0E0EC0FFD1FEE0DFF1D108227
:102A2000C8010E94FD0B21E0AE01485A5F4FB20180
:102A3000C8010E94B611811120C01EAE1DAE84E4F3
:102A400091E09CAF8BAF21961FAE2197A796EEAD7C
:102A5000FFADA7976E0E7F1EF3018081811120C00C
:102A6000BE01655C7F4FC1010E94B60D47E551E094
:102A7000B101C5010E94771431C0CE0CDF1CC20128
:102A80000E94FD0BB3CFC60186199709A7969FAF89
:102A90008EAFA797B201CE01CB960E94B60DD6CFCE
:102AA00019A218A284E491E09F8F8E8F1BA2219619
:102AB0008FAD219781112DC0F5011382128288EE0E
:102AC00093E0A0E0B0E084839583A683B7838EE093
:102AD00091E091838083128E118E1486C501CA59AC
:102AE000DF4F0FB6F894DEBF0FBECDBFDF91CF91A1
:102AF0001F910F91FF90EF90DF90CF90BF90AF901C
:102B00009F908F907F906F905F904F903F902F900D
:102B1000089527E1A301BE01655C7F4FC4010E94B7
:102B2000B611882349F2CE01CB960E94FD0B49A92C
:102B30005AA96BA97CA9C4010E94D109B401C101A1
:102B40000E94B60DA30194CF1F920F920FB60F9261
:102B500011242F933F934F935F936F937F938F93A2
:102B60009F93AF93BF93EF93FF9389E295E00E9409
:102B70003B01FF91EF91BF91AF919F918F917F9119
:102B80006F915F914F913F912F910F900FBE0F90DA
:102B90001F9018951F920F920FB60F9211242F932A
:102BA0008F939F93EF93FF93E0913905F0913A054E
:102BB0008081E0913F05F091400582FD1BC090812E
:102BC000809142058F5F8F7320914305821741F0FA
:102BD000E0914205F0E0E75DFA4F958F8093420562
:102BE000FF91EF919F918F912F910F900FBE0F90BA
:102BF0001F9018958081F4CF1F920F920FB60F92FD
:102C000011242F933F938F939F93AF93BF93809102
:102C10009A0290919B02A0919C02B0919D023091EA
:102C2000990223E0230F2D3758F50196A11DB11D00
:102C30002093990280939A0290939B02A0939C0206
:102C4000B0939D0280919E0290919F02A091A0025C
:102C5000B091A1020196A11DB11D80939E02909397
:102C60009F02A093A002B093A102BF91AF919F9148
:102C70008F913F912F910F900FBE0F901F9018953D
:102C800026E8230F0296A11DB11DD2CF1F920F92ED
:102C90000FB60F9211242F933F934F935F936F932F
:102CA0007F938F939F93AF93BF93EF93FF93809105
:102CB000B900887F803609F44AC0F0F5883209F4FB
:102CC000A7C018F5803109F49BC0B8F4882309F433
:102CD000F9C0883009F494C0FF91EF91BF91AF9192
:102CE0009F918F917F916F915F914F913F912F9124
:102CF0000F900FBE0F901F901895883109F488C06F
:102D0000803251F78093FD0414C0803409F49DC0D3
:102D100040F48033B9F38833F9F68093FD0485ECF1
:102D2000B0C0803509F485C0883509F496C0883470
:102D300099F60E947E11D0CF883909F48CC038F5FD
:102D4000883729F050F4883611F0803729F683E06F
:102D50008093FF041092980257C0883809F47BC012
:102D6000803919F0803809F0B7CF8091980280320D
:102D700008F071C0E091980281E08E0F8093980274
:102D80008091BB00F0E0E858FD4F80833DC0803B60
:102D900039F0E0F4803A09F479C0883A09F09CCF20
:102DA00084E08093FF041092770210927602E09103
:102DB000A502F091A60209958091760281110FC0BB
:102DC00081E0809376021092560209C0803C09F49B
:102DD000A6CF883C09F4A3CF883B09F07DCFE091D2
:102DE000770281E08E0F80937702F0E0EA5AFD4F80
:102DF00080818093BB00909177028091760229C0F8
:102E00008091DA048093BB0085EC8093BC0064CF92
:102E10009091FC048091FB04981758F5E091FC0414
:102E200081E08E0F8093FC04F0E0E552FB4F80813F
:102E3000E9CFE091FC0481E08E0F8093FC04809147
:102E4000BB00F0E0E552FB4F80839091FC04809141
:102E5000FB049817C8F285E8D8CFE091FC0481E024
:102E60008E0F8093FC048091BB00F0E0E552FB4F95
:102E700080838091FE0481115CCF81E08093D9042E
:102E800084EA8093BC001092FF0426CF85EC8093E7
:102E9000BC001092FF0480919802803230F4E091DF
:102EA0009802F0E0E858FD4F10826091980270E0BF
:102EB000E091A302F091A40288E792E009951092B4
:102EC00098020ACF1092FD0434CFE9E2F5E01382B4
:102ED000128288EE93E0A0E0B0E084839583A6831D
:102EE000B78320E231E03183208325EC30E0358761
:102EF000248724EC30E03787268720EC30E0318BC4
:102F0000208B21EC30E0338B228B22EC30E0358BB0
:102F1000248B26EC30E0378B268B118E128E138E8D
:102F2000148EE6ECF5E01382128284839583A683E7
:102F3000B78382E391E091838083E2EDF5E080E561
:102F400080831182E4EDF5E01582168211861386E6
:102F500082E090E0A0E0B0E084879587A687B787FD
:102F600013A215A614A684E491E093A782A717A63E
:102F70000895CF93DF93CDB7DEB76B970FB6F89474
:102F8000DEBF0FBECDBF789484B5826084BD84B5AA
:102F9000816084BD85B5826085BD85B5816085BD54
:102FA00080916E00816080936E001092810080910C
:102FB0008100826080938100809181008160809394
:102FC0008100809180008160809380008091B100B9
:102FD00084608093B1008091B00081608093B000E4
:102FE00080917A00846080937A0080917A00826078
:102FF00080937A0080917A00816080937A0080913A
:103000007A00806880937A001092C100E0913905BF
:10301000F0913A0582E08083E0913505F091360524
:103020001082E0913705F09138058FEC8083109283
:103030004105E0913D05F0913E0586E08083E091F9
:103040003B05F0913C05808180618083E0913B05E8
:10305000F0913C05808188608083E0913B05F09190
:103060003C05808180688083E0913B05F0913C05C0
:1030700080818F7D808368EE73E080E090E00E9425
:103080003B0289E290E00E94CD1F8C0182E090E03B
:10309000D80111969C938E9383E090E013969C93B5
:1030A0008E9312978AE090E015969C938E931497D6
:1030B00080E197E217969C938E93169788EE93E0A3
:1030C00019969C938E93189787E01A968C931A976B
:1030D0001E961C921E921D9788EE93E0A0E0B0E031
:1030E000F8018787908BA18BB28B8EE091E094875B
:1030F000838715A214A2178A89E591E090A787A378
:103100001093D2020093D10282E00E949500D80170
:1031100012968C910E94950083E691E00E945311D3
:10312000F80184810E949500D8011496FC9080914A
:103130000306882321F08EEF95E00E94FD0B10928C
:10314000DF051092DD051092DA051092D905F09294
:10315000D8050E946D027B018091D8050E949500E0
:1031600061E08091D8050E94CA01DFB6F894809191
:10317000A202811124C0E5EBF0E08491E9ECF0E0DB
:103180009491E82FF0E0EE0FFF1FEF55FF4FA59150
:10319000B491EC91E92321F461E08AE00E94CA0134
:1031A0008AE00E9495008CB580618CBD8CB58064EE
:1031B0008CBD8DE00E9495008BE00E94950080916F
:1031C000A2028F5F8093A202DFBE82E58093D205C8
:1031D0001092D3058091D2059091D3050E948E0460
:1031E0002AE0D22E8FEF0E946904DA94D110FACF30
:1031F00084ED95E00E94910420E030E0A90160E0B8
:1032000084ED95E00E94A704D82E8093DE05B1E0FE
:103210008B1799F00E946D026E197F09613D77400E
:1032200058F381E08093D90584ED95E00E945E0417
:103230006DE871E0C8010E946E112AEA31E040E0B9
:1032400050E068E084ED95E00E94A70482FF2AC068
:10325000D092DF058091DF05812C912C54018230C2
:1032600029F4812C912CA12C80E4B82E20E030E0B0
:10327000A90167E384ED95E00E94A704A5019401EC
:1032800069E284ED95E00E94A7048093DE0588231F
:10329000D1F00E946D026E197F09613D774030F3D5
:1032A00088E0C0CF94E0D92E0E9470048093DE05A0
:1032B000DA94D110F9CF8A3A11F082E0B3CF82E0EC
:1032C0008093DF05C7CF8091DF058230D1F420E005
:1032D00030E0A9016AE384ED95E00E94A704882309
:1032E00011F086E09FCF0E947004807C803C19F42E
:1032F00083E08093DF050E9470040E9470040E94A6
:10330000700484ED95E00E945E0480E58093D20510
:103310001092D30581E00E94C606882309F4A3C059
:103320008EEF95E00E947D09882309F481CF8BE719
:1033300091E00E9453111092A8021092A7021092DD
:103340000605109228050E94A00284EB90E090935D
:10335000A6028093A50285EB90E09093A40280934F
:10336000A3020E94A00281E08093050588E6809375
:10337000270581E00E94DF0269EA71E081115ACFDE
:1033800061E0D80112968C910E94CA0164EF71E04D
:1033900080E090E00E943B0260E0F80182810E94A0
:1033A000CA016AEF70E080E090E00E943B0261E0B9
:1033B000D80112968C910E94CA0164E670E080E008
:1033C00090E00E943B0260E0F80182810E94CA0105
:1033D00064E670E080E090E00E943B0261E0D8018A
:1033E00012968C910E94CA0164E670E080E090E041
:1033F0000E943B0260E0F80182810E94CA010091B4
:10340000D1021091D20264EB71E0D80197968D91B0
:103410009C910E940A217801BBE0EB0EF11C69E04F
:1034200074E1F80187A190A50E945913D8019796DD
:103430002D913C9181111EC0B901CE0101960E94CF
:10344000AC14BE016F5F7F4FC7010E94C10FD8014E
:103450009496ED91FC91309719F0858181112FC0E0
:1034600067ED71E0E7CE80E00E94C606882309F48C
:10347000DFCE56CF66E374E1C9010E9459136DEBAC
:1034800071E089E295E00E946611F80167A170A5DC
:1034900089E295E00E9466118EEC91E00E94531142
:1034A000D80197966D917C91CE0101960E94AC1443
:1034B000BE016F5F7F4FC7010E94C10FB0CFE09088
:1034C000D102F090D2028701055F1F4F6BEE71E0D1
:1034D000C8010E946611F701828582FF0AC067EF6A
:1034E00071E0C8010E94661169EF71E0C8010E9495
:1034F00066116DE471E0C8010E946611A0E0CA2E59
:10350000A0E0DA2EB6E06B2EF0E47F2E70927C0005
:1035100080917A00806480937A0080917A0086FDA1
:10352000FCCF8091780060917900762F682F072E6C
:10353000000C880B990B0E94C81D20E030E04AEF78
:103540005EE30E94271E6093D3027093D40280939F
:10355000D5029093D602E090D102F090D2020E9460
:103560006D020091CD021091CE022091CF023091D8
:10357000D002AB01BC01401B510B620B730BD70196
:1035800018968D919C91092E000CAA0BBB0B481725
:1035900059076A077B0708F4BAC20E946D0260935C
:1035A000CD027093CE028093CF029093D002D701C8
:1035B0009496ED91FC91309719F08581811108C0A6
:1035C000F701828583FF04C069E072E0C70133CE52
:1035D0008090D3029090D402A090D502B090D602F1
:1035E0008701055F1F4FA5019401C501B4010E9429
:1035F000A01F6AE172E081111BC014012501E8944B
:1036000057F82FEF3FEF4FE75FE7C201B1010E948C
:10361000A01F8111B3C02FEF3FEF4FE75FE7C2015B
:10362000B1010E94C11D18160CF0A8C06EE172E035
:10363000C8010E94F11066E272E0C8010E946611A2
:10364000D7011A968C9182FFF6C1ECE8F0E081E098
:103650009491823009F49F5F3196911103C08F5F7E
:103660008C30B1F70E946D02AB01BC012AE0C801A9
:103670000E94001166E272E0C8010E94661181E0BA
:1036800080930505B8E6B0932705109206051092C1
:10369000280560E086EC95E00E94260481E00E9407
:1036A000DF020E9416024B015C018091FF04811130
:1036B000DEC081E08093FF048093FE04EFEFE0938F
:1036C000FD041092FC046092FB048093DA04809164
:1036D000DA04806D8093DA048091D904813009F096
:1036E00028C21092D9040E9416024B015C018091FD
:1036F000DA048093BB008091010590910205A091AE
:103700000305B0910405892B8A2B8B2BA1F00E9415
:103710001602209101053091020540910305509158
:103720000405681979098A099B092617370748078C
:10373000590708F4BDC08091BC0083FDD8CFF5ECDB
:10374000F093BC000E9416024B015C018091FF04C3
:10375000813009F4F2C18091FC04873008F00FC277
:103760008091FC04ABEDB4E0E9EAF2E090E0981758
:1037700009F4A3C02D9121939F5FF9CF2FEF3FEF65
:103780004FE75FE4C501B4010E949B1F18161CF4AB
:1037900062E272E04DCF2FEF3FEF4FE75FECC501E4
:1037A000B4010E94C11D87FDF3CF20E030E0A901E4
:1037B000C501B4010E94C11D87FF08C06DE2C801A8
:1037C0000E94B600B7FAB094B7F8B0942AE037ED8B
:1037D00043EA5BE3C501B4010E94001F1B012C01F9
:1037E0000E946C1F4B015C010E94C61D9B01AC0135
:1037F000C201B1010E94FF1E1B012C012AE0B5018C
:10380000A401C8010E9400116EE2C8010E94B60026
:1038100020E030E040E251E4C201B1010E94271EE5
:103820001B012C010E946C1F4B01B12CA12C2AE022
:10383000B501A401C8010E940011C501B4010E9494
:10384000C61D9B01AC01C201B1010E94FF1E20E018
:1038500030E040E251E40E94271E0E946C1FAB0141
:1038600070E060E02AE0C8010E940011E4CE80917F
:10387000010590910205A0910305B0910405892BE3
:103880008A2B8B2B09F411CF0E941602209101057F
:10389000309102054091030550910405681979099A
:1038A0008A099B09261737074807590708F0FDCEF4
:1038B000809100050E94BE0280E01092A8028093D1
:1038C000A70286EC95E00E94DF038F77282F30E077
:1038D00094E0359527959A95E1F7922F990F990FD6
:1038E000922E991A990C980E86EC95E00E94DF03AF
:1038F0009C0144E0359527954A95E1F72F703327D1
:10390000922F990F990F822E891A880C880E86ECB7
:1039100095E00E94DF039C0154E0359527955A9568
:10392000E1F72F703327922F990F990F522E591AC2
:10393000550C580E86EC95E00E94DF0386EC95E06E
:103940000E94DF039C0164E0359527956A95E1F7B5
:103950002F703327922F990F990F422E491A440C3A
:10396000480E86EC95E00E94DF039C0174E03595DB
:1039700027957A95E1F72F703327922F990F990F9A
:10398000322E391A330C380E86EC95E00E94DF0394
:103990005C0166E272E0C8010E94661162E2C80141
:1039A0000E94B600A501E4E055954795EA95E1F738
:1039B0004F705527842F880F880F481B440FA40E83
:1039C0004A2D50E04053584F70E060E02AE0C801B3
:1039D0000E94001167E571E0C8010E946611632D25
:1039E000C8010E944C1167E571E0C8010E94661190
:1039F000642DC8010E944C1169E272E0C8010E9466
:103A00006611652DC8010E944C116CE272E0C8017C
:103A10000E946611682DC8010E944C116CE272E090
:103A2000C8010E946611692DC8010E944C1162E212
:103A3000C8010E94B600D7011A968C911A9780FF90
:103A400010C061E012968C910E94CA0162E370E09E
:103A500080E090E00E943B0260E0F70182810E94DA
:103A6000CA016DE471E0C8010E9466118EE292E025
:103A70000E9453110E946D028090C9029090CA0268
:103A8000A090CB02B090CC02AB01BC0148195909FF
:103A90006A097B09D70116968D919C91092E000C1D
:103AA000AA0BBB0B481759076A077B0780F10E94D6
:103AB0006D026093C9027093CA028093CB02909307
:103AC000CC02C8010E94070EF701828581FF1BC04E
:103AD00061E080810E94CA0161E0D70112968C9159
:103AE0000E94CA0162E370E080E090E00E943B0225
:103AF00060E0F70180810E94CA0160E0D701129660
:103B00008C910E94CA018DE392E00E94531168EEED
:103B100073E080E090E00E943B02C114D10409F4FC
:103B2000F5CC0E942701882309F4EECC0E94000006
:103B3000EBCC85EE8093BC0005CE80910105909181
:103B40000205A0910305B0910405892B8A2B8B2BCC
:103B500009F4FCCD0E941602209101053091020566
:103B60004091030550910405681979098A099B0958
:103B7000261737074807590708F0E8CD99CE87E0A0
:103B8000F1CD0E94031E08F481E00895E89409C075
:103B900097FB3EF490958095709561957F4F8F4F80
:103BA0009F4F9923A9F0F92F96E9BB279395F69596
:103BB000879577956795B795F111F8CFFAF4BB0F14
:103BC00011F460FF1BC06F5F7F4F8F4F9F4F16C078
:103BD000882311F096E911C0772321F09EE8872F02
:103BE000762F05C0662371F096E8862F70E060E0BE
:103BF0002AF09A95660F771F881FDAF7880F969537
:103C0000879597F90895990F0008550FAA0BE0E8DA
:103C1000FEEF16161706E807F907C0F0121613068E
:103C2000E407F50798F0621B730B840B950B39F4CE
:103C30000A2661F0232B242B252B21F408950A2634
:103C400009F4A140A6958FEF811D811D08950E9462
:103C50003A1E0C94AB1E0E949D1E38F00E94A41EBA
:103C600020F0952311F00C94941E0C949A1E1124AC
:103C70000C94DF1E0E94BC1E70F3959FC1F3950F3C
:103C800050E0551F629FF001729FBB27F00DB11DE0
:103C9000639FAA27F00DB11DAA1F649F6627B00D70
:103CA000A11D661F829F2227B00DA11D621F739F59
:103CB000B00DA11D621F839FA00D611D221F749F67
:103CC0003327A00D611D231F849F600D211D822FAE
:103CD000762F6A2F11249F5750409AF0F1F08823D5
:103CE0004AF0EE0FFF1FBB1F661F771F881F915002
:103CF0005040A9F79E3F510580F00C94941E0C94FF
:103D0000DF1E5F3FE4F3983ED4F386957795679581
:103D1000B795F795E7959F5FC1F7FE2B880F911D2B
:103D20009695879597F9089597F99F6780E870E0D1
:103D300060E008959FEF80EC089500240A94161621
:103D4000170618060906089500240A941216130689
:103D5000140605060895092E0394000C11F4882317
:103D600052F0BB0F40F4BF2B11F460FF04C06F5F33
:103D70007F4F8F4F9F4F089557FD9058440F551F09
:103D800059F05F3F71F04795880F97FB991F61F0DD
:103D90009F3F79F087950895121613061406551F54
:103DA000F2CF4695F1DF08C0161617061806991FC0
:103DB000F1CF86957105610508940895E894BB27B5
:103DC00066277727CB0197F908950E94F01EA59FDB
:103DD000900DB49F900DA49F800D911D1124089506
:103DE000A29FB001B39FC001A39F700D811D11243C
:103DF000911DB29F700D811D1124911D0895505881
:103E0000BB27AA270E94171F0C94AB1E0E949D1E61
:103E100038F00E94A41E20F039F49F3F19F426F4D4
:103E20000C949A1E0EF4E095E7FB0C94941EE92F77
:103E30000E94BC1E58F3BA176207730784079507E0
:103E400020F079F4A6F50C94DE1E0EF4E0950B2E0E
:103E5000BA2FA02D0B01B90190010C01CA01A001DC
:103E60001124FF27591B99F0593F50F4503E68F137
:103E70001A16F040A22F232F342F4427585FF3CF78
:103E8000469537952795A795F0405395C9F77EF449
:103E90001F16BA0B620B730B840BBAF09150A1F092
:103EA000FF0FBB1F661F771F881FC2F70EC0BA0F18
:103EB000621F731F841F48F4879577956795B795A0
:103EC000F7959E3F08F0B0CF9395880F08F099279B
:103ED000EE0F9795879508950E94C41E88F09F570E
:103EE00098F0B92F9927B751B0F0E1F0660F771F1E
:103EF000881F991F1AF0BA95C9F714C0B13091F014
:103F00000E94DE1EB1E008950C94DE1E672F782F0C
:103F10008827B85F39F0B93FCCF3869577956795D8
:103F2000B395D9F73EF490958095709561957F4F44
:103F30008F4F9F4F08950E94031E08F48FEF08953E
:103F40000E94031E880B990B0895A1E21A2EAA1B4A
:103F5000BB1BFD010DC0AA1FBB1FEE1FFF1FA21739
:103F6000B307E407F50720F0A21BB30BE40BF50B36
:103F7000661F771F881F991F1A9469F760957095BF
:103F8000809590959B01AC01BD01CF010895EE0F86
:103F9000FF1F0590F491E02D09940F931F93CF9389
:103FA000DF938230910510F482E090E0E0911F06EB
:103FB000F091200630E020E0B0E0A0E0309799F4E6
:103FC0002115310509F44AC0281B390B243031056D
:103FD000D8F58A819B816115710589F1FB01938375
:103FE0008283FE0111C040815181028113814817F3
:103FF0005907E0F04817590799F4109761F01296A5
:104000000C93129713961C933296CF01DF91CF91A8
:104010001F910F91089500931F0610932006F4CF6F
:104020002115310551F04217530738F0A901DB0182
:104030009A01BD01DF01F801C1CFEF01F9CF9093E3
:10404000200680931F06CDCFFE01E20FF31F819360
:1040500091932250310939832883D7CF20911D06AF
:1040600030911E06232B41F4209106013091070167
:1040700030931E0620931D06209104013091050106
:104080002115310541F42DB73EB7409108015091FB
:104090000901241B350BE0911D06F0911E06E21765
:1040A000F307A0F42E1B3F0B2817390778F0AC015B
:1040B0004E5F5F4F2417350748F04E0F5F1F509338
:1040C0001E0640931D06819391939FCFF0E0E0E0A0
:1040D0009CCFCF93DF930097E9F0FC0132971382D6
:1040E0001282A0911F06B0912006ED0130E020E081
:1040F0001097A1F420813181820F931F20911D061A
:1041000030911E062817390709F061C0F0931E068A
:10411000E0931D06DF91CF910895EA01CE17DF07E6
:10412000E8F54A815B819E0141155105B1F7E9012E
:10413000FB83EA8349915991C40FD51FEC17FD0702
:1041400061F4808191810296840F951FE901998322
:104150008883828193819B838A83F0E0E0E01296DA
:104160008D919C9113970097B9F52D913C911197E2
:10417000CD010296820F931F20911D0630911E06DD
:104180002817390739F6309751F51092200610920A
:104190001F06B0931E06A0931D06BCCFD383C28317
:1041A00040815181840F951FC817D90761F44E5F74
:1041B0005F4F88819981480F591F518340838A81BD
:1041C0009B81938382832115310509F0B0CFF09351
:1041D0002006E0931F069ECFFD01DC01C0CF1382B5
:1041E0001282D7CFFB01DC0104C08D9101908019B0
:1041F00021F441505040C8F7881B990B0895FC01E9
:104200008191861721F08823D9F79927089531974E
:10421000CF010895FB01DC0101900D920020E1F730
:104220000895FB01DC014150504048F001900D928F
:104230000020C9F701C01D9241505040E0F7089599
:04424000F894FFCF20
:10424400FFFFFFFF000021068000000000005D0E5C
:10425400400E300E070E100E930F9D0F000000004D
:104264005D01BD00EA00AA011B01F9000D01000077
:1042740000002604F9035504CF03F203DF03D0033F
:1042840000000000A50DBD009F0B060E0D0A006581
:1042940072726F723A20002F0041424344452E63EC
:1042A400737600496E697469616C697A696E672016
:1042B400534420636172642E2E2E00636172642065
:1042C400696E697469616C697A65642E0043617210
:1042D40064206661696C65642C206F72206E6F7453
:1042E4002070726573656E74005254432066616970
:1042F4006C656400546573742E6373760044656C56
:104304006574696E6720437572656E74200020437E
:104314006F6E74656E7400636F756C646E74206385
:1043240072656174652066696C650054656D7065BD
:10433400726174757265002C006D696C6C69732C04
:104344006461746574696D65004E6F2066696C659F
:10435400206973206F70656E2E006E616E00696E49
:1043640066006F7666002C20002020003A00577209
:1043740069746520746F2066696C652E0053796ECC
:0E438400632077697468206469736B2E0000F3
:00000001FF
