:100000000C9470000C9498000C9498000C94980038
:100010000C9498000C9498000C9498000C94980000
:100020000C9498000C9498000C9498000C949800F0
:100030000C9498000C9498000C9498000C949800E0
:100040000C9427180C9498000C94F5170C94CF1767
:100050000C9498000C9498000C9498000C949800C0
:100060000C9471180C9498007C3C3E5E2B3D3F2F05
:100070005B5D3B2C2A225C0000000000250028006C
:100080002B0000000008000201000003040700002C
:1000900000000000000000000000240027002A00EB
:1000A0001F1C1F1E1F1E1F1F1E1F1E0000000023DF
:1000B00000260029000404040404040404020202CB
:1000C0000202020303030303030102040810204099
:1000D0008001020408102001020408102000901979
:1000E00011241FBECFEFD8E0DEBFCDBF26E0A8E5CC
:1000F000B2E001C01D92A536B207E1F712E0A0E020
:10010000B1E0E4E1F7E402C005900D92A835B10733
:10011000D9F710E0C0E7D0E004C02197FE010E94AB
:100120002F22CF36D107C9F70E942D1A0C948823AD
:100130000C940000CF93DF93FC0182819381909314
:1001400046068093450684819581A681B781809378
:10015000470690934806A0934906B0934A068085C7
:100160009185A285B38580934B0690934C06A0930E
:100170004D06B0934E06DF011C96CF014996CFE4A1
:10018000D6E02D912993A817B907D9F7818D928DC3
:1001900090935D0680935C0683E496E0DF91CF91B7
:1001A0000895CF92DF92EF92FF92CF93DF93B091B9
:1001B0002C06A0E08111AB2F80912D0690E0880FD6
:1001C000991FAC0145555F4FC0903206D090330661
:1001D000E0903406F090350630E020E0FA01C59159
:1001E000D491E881B90190E080E0EB23EA130AC0E2
:1001F0002F5F3F4F6C157D058E059F0578F36FEFE0
:100200007FEFCB01DF91CF91FF90EF90DF90CF9008
:10021000089508950895AF92BF92CF92DF92EF9222
:10022000FF920F931F93CF93DF936C017B018B01A0
:10023000040F151FEB015E01AE18BF08C017D107F0
:1002400059F06991D601ED91FC910190F081E02D7A
:10025000C6010995892B79F7C501DF91CF911F91CF
:100260000F91FF90EF90DF90CF90BF90AF900895E7
:10027000FC01538D448D252F30E0842F90E0821BAC
:10028000930B541710F0CF96089501970895FC0131
:10029000918D828D981761F0A28DAE0FBF2FB11D89
:1002A0005D968C91928D9F5F9F73928F90E00895E1
:1002B0008FEF9FEF0895FC01918D828D981731F09B
:1002C000828DE80FF11D858D90E008958FEF9FEFEF
:1002D0000895FC01918D228D892F90E0805C9F4FC5
:1002E000821B91098F739927089581E395E00E94FD
:1002F000690121E0892B09F420E0822F089580E034
:1003000090E0892B29F00E94750181110C94000066
:100310000895FC01A48DA80FB92FB11DA35ABF4F9A
:100320002C91848D90E001968F739927848FA689F4
:10033000B7892C93A089B1898C91837080648C9348
:10034000938D848D981306C00288F389E02D8081F7
:100350008F7D80830895EF92FF920F931F93CF9329
:10036000DF93EC0181E0888F9B8D8C8D98131AC0F0
:10037000E889F989808185FF15C09FB7F894EE89D7
:10038000FF896083E889F989808183708064808334
:100390009FBF81E090E0DF91CF911F910F91FF907F
:1003A000EF900895F62E0B8D10E00F5F1F4F0F7327
:1003B0001127E02E8C8D8E110CC00FB607FCFACFE2
:1003C000E889F989808185FFF5CFCE010E948901F6
:1003D000F1CFEB8DEC0FFD2FF11DE35AFF4FF082B3
:1003E0009FB7F8940B8FEA89FB8980818062CFCF19
:1003F000CF93DF93EC01888D8823B9F0AA89BB895C
:10040000E889F9898C9185FD03C0808186FD0DC046
:100410000FB607FCF7CF8C9185FFF2CF808185FF67
:10042000EDCFCE010E948901E9CFDF91CF910895F0
:1004300090E0FC01EE57FF4F2491FC01E753FF4F82
:100440003491FC01EB54FF4FE491EE23C9F02223D9
:1004500039F0233001F1A8F4213019F1223029F1CB
:10046000F0E0EE0FFF1FE858FF4FA591B4918FB752
:10047000F894EC91611126C030953E233C938FBFD8
:1004800008952730A9F02830C9F0243049F7809129
:1004900080008F7D03C0809180008F7780938000E3
:1004A000DFCF84B58F7784BDDBCF84B58F7DFBCF65
:1004B0008091B0008F778093B000D2CF8091B00050
:1004C0008F7DF9CF3E2BDACFCF93DF9390E0FC0105
:1004D000E753FF4F24918B549F4FFC018491882355
:1004E000D1F090E0880F991FFC01EA56FF4FA591CB
:1004F000B491FC01E858FF4FC591D491623071F47A
:100500009FB7F8943C91822F809583238C93E88148
:100510002E2B28839FBFDF91CF9108958FB7F8943A
:10052000EC912E2B2C938FBFF6CF3FB7F894809190
:10053000A8029091A902A091AA02B091AB0226B59F
:10054000A89B05C02F3F19F00196A11DB11D3FBF0B
:10055000BA2FA92F982F8827BC01CD01620F711DDA
:10056000811D911D42E0660F771F881F991F4A95D4
:10057000D1F708958F929F92AF92BF92CF92DF9260
:10058000EF92FF924B015C010E9495026B017C018E
:100590000E9495026C197D098E099F09683E73407F
:1005A00081059105A8F321E0821A9108A108B108FC
:1005B00088EEC80E83E0D81EE11CF11C8114910462
:1005C000A104B10429F7FF90EF90DF90CF90BF9086
:1005D000AF909F908F9008952FB7F8946091A402E8
:1005E0007091A5028091A6029091A7022FBF089555
:1005F000CF92DF92EF92FF920F931F93CF93DF93EF
:10060000CDB7DEB7C054D1400FB6F894DEBF0FBEF1
:10061000CDBF0E94EC0200912E0610912F06209172
:100620003006309131066B017C01C01AD10AE20A12
:10063000F30A97018601003D17402105310590F42A
:1006400080913606C05CDE4F0FB6F894DEBF0FBE59
:10065000CDBFDF91CF911F910F91FF90EF90DF9071
:10066000CF90089560932E0670932F0680933006E6
:1006700090933106109229061092280610922706B0
:10068000109226061092250662E080912A060E94AA
:10069000640261E070E080E090E00E94BA0261E0F4
:1006A00080912A060E94640260E080912A060E94DE
:1006B000180280912B068551823020F58BE291E162
:1006C0000197F1F762E080912A060E94640280910E
:1006D000370690E08230910538F0880F991F880F17
:1006E000991F05970197F1F7F89480E00E94D100D7
:1006F0006F3F7F4F8F4F9F4F61F410923606789473
:1007000080E0A0CF64E170E080E090E00E94BA0257
:10071000D9CF81E00E94D1006F3F7F4F8F4F9F4F15
:1007200061F38E010F5F1F4F6E012FEBC21A2EEF88
:10073000D20A780180E00E94D100F70160837183C2
:100740008283938381E00E94D100F70164837583E3
:1007500086839783F8E0EF0EF11CEC14FD0451F74B
:10076000789430E020E0F801C080D180E280F3800E
:100770004481558166817781FFEFCF16DF06EF0652
:10078000FF0631F04F3F8FEF58076807780719F4DD
:1007900010923606B5CFF90183E0F595E7958A9575
:1007A000E1F7EB5DF94F8081880FC416D506E606A8
:1007B000F70610F180832F5F3F4F085F1F4F2832ED
:1007C000310589F64091290620912506809126065B
:1007D000280F3327331F80912706280F311D809162
:1007E0002806820F932F911D99274817190681F625
:1007F00081E08093360626CF8160DCCF2091800295
:10080000260F3327331F21323105ECF420910705E1
:10081000FC0190E080E0243069F082E00895A0912E
:1008200080022191AC01405A5D4FA40FB52FB11D3C
:100830002C930196861798F380918002680F60933D
:10084000800280E0089581E008951092070581E01C
:10085000809306051092E10461E082E10E94180293
:1008600061E083E10E941802E9EBF0E080818E7F75
:10087000808380818D7F808388E48093B80085E4C5
:100880008093BC000895CF93DF9391E090935F0233
:100890008823B9F0C091B800D091BA008091BC0013
:1008A0008A7B8093BC0060E082E10E94180260E0D5
:1008B00083E10E9418020E942504D093BA00C093DD
:1008C000B800DF91CF9108958F929F92AF92BF921F
:1008D000CF92DF92EF92FF920F931F93CF93DF930C
:1008E000D0913005D13208F0D7C0182FC0912F0514
:1008F0000E9495026B017C018091070581116BC0FC
:1009000082E080930705109306058FEF809305051D
:1009100010920405D0930305AFE0B5E0E3EEF4E0F8
:1009200080E0D81391C01092E2048091E204CC0FD1
:10093000C82BC093E2048091E104813009F088C0A3
:100940001092E1040E9495026B017C018091E20407
:100950008093BB008091090590910A05A0910B0539
:10096000B0910C05892B8A2B8B2BA1F00E9495024C
:100970000091090510910A0520910B0530910C0595
:100980006C197D098E099F09061717072807390773
:1009900008F442C08091BC0083FDD8CF85EC8093E1
:1009A000BC000E9495026B017C018091070582309A
:1009B00009F450C0809105058F3F09F46FC0809104
:1009C0000505803209F46CC080910505803309F477
:1009D00069C084E026C08091090590910A05A09124
:1009E0000B05B0910C05892B8A2B8B2B09F484CF36
:1009F0000E9495028090090590900A05A0900B0531
:100A0000B0900C056C197D098E099F098616970612
:100A1000A806B90608F070CF809108050E9443042B
:100A200085E010920E051092300510920D05DF91B1
:100A3000CF911F910F91FF90EF90DF90CF90BF90DB
:100A4000AF909F908F9008959D9191938F5F69CF04
:100A500085EEA5CF8091090590910A05A0910B051F
:100A6000B0910C05892B8A2B8B2B09F49ECF0E9409
:100A700095020091090510910A0520910B0530910E
:100A80000C056C197D098E099F09061717072807A1
:100A9000390708F08ACFC0CF81E0C3CF80E0C1CF53
:100AA00082E0BFCF83E0BDCF0895E091B202809194
:100AB000B102E81730F4F0E0ED54FD4F808190E092
:100AC00008958FEF9FEF08959091B2028091B10247
:100AD0002FEF3FEF981748F4E92FF0E0ED54FD4F6A
:100AE000208130E09F5F9093B202C9010895809108
:100AF000B1029091B202891B990B0895CF92DF92B7
:100B0000EF92FF920F931F93CF93DF937C01CB0162
:100B10008A0120910D05222389F0EB016B01C40E9F
:100B2000D51ECC15DD0569F06991D701ED91FC91D9
:100B30000190F081E02DC7010995F3CF642F0E9449
:100B4000FE03C801DF91CF911F910F91FF90EF90AD
:100B5000DF90CF900895CF93DF931F92CDB7DEB78C
:100B6000698320910D052223F9F020913005203270
:100B700058F021E030E0FC013383228390E080E0F4
:100B80000F90DF91CF91089580910E05E82FF0E04E
:100B9000E15FFA4F998190838F5F80930E05809378
:100BA000300581E090E0ECCF61E0CE0101960E943B
:100BB000FE03F7CF90E080E008958FB7F89480911E
:100BC00059028FBF089561E0FC0184810E941802E0
:100BD0008091580281111092580208958EBD000034
:100BE0000DB407FEFDCF8EB508958FEF0C94EE0582
:100BF0000F931F93CF93DF93EC010E94EC028B01C4
:100C00000E94F5058F3F69F00E94EC02601B710B9A
:100C10006C177D07A8F380E0DF91CF911F910F91B2
:100C2000089581E0F9CF8CBD9DBD0895CF93DF93EA
:100C3000EC0180915802811109C081E08093580233
:100C40008091DA059091DB050E94130660E08C81AB
:100C5000DF91CF910C9418028F929F92AF92BF9226
:100C6000FF920F931F93CF93DF93EC01F62E490170
:100C70005A018E81882389F08F8198859C012F5F8E
:100C80003F4F38872F838230924018F40E94F50539
:100C9000F3CFCE010E94E3051E82CE010E9416060C
:100CA0008CE291E00E94F8058F2D80640E94EE0591
:100CB00008E110E0D501C401002E04C0B695A79547
:100CC000979587950A94D2F70E94EE05085011096E
:100CD000083F8FEF180771F785E9FF2021F028E022
:100CE00087E8F2128FEF0E94EE0510E00E94F505F2
:100CF0008A8787FF04C01F3F11F01F5FF7CFDF9186
:100D0000CF911F910F91FF90BF90AF909F908F90C8
:100D10000895AF92BF92CF92DF92EF92FF920F931E
:100D20001F93CF93DF93EC016901C801820F931FDA
:100D30008130924050F58E81882379F088819981A5
:100D4000AA81BB8184179507A607B70731F48F8165
:100D50009885C816D90608F042C0488359836A832B
:100D60007B838B85833039F089E0440F551F661FE4
:100D7000771F8A95D1F79A01AB0161E1CE010E94FC
:100D80002C06882389F083E08D83CE010E94E30541
:100D900080E0DF91CF911F910F91FF90EF90DF9056
:100DA000CF90BF90AF9008950E94EC025B010E942B
:100DB000F5058A878F3F69F40E94EC026A197B0966
:100DC0006D327140A0F38FE08D83CE010E94E30568
:100DD000DCCF8E3F89F418861F8281E08E838F815D
:100DE00098858C159D0550F40E94F5058F81988596
:100DF000019698878F83F3CF8DE0E6CF6701E00EF1
:100E0000F11E0E94F505F60181936F01EE15FF05B5
:100E1000C1F78F819885080F191F18870F8389855F
:100E2000882319F001151240A0F08E81882389F0E3
:100E30008F8198859C012F5F3F4F38872F838230A9
:100E4000924018F40E94F505F3CFCE010E94E3050D
:100E50001E8281E09ECFCF92DF92EF92FF920F939E
:100E6000CF93DF93EC01690182E1411551056105E2
:100E7000710599F08B85833039F089E0440F551F57
:100E8000661F771F8A95D1F79A01AB0168E1CE0101
:100E90000E942C06882319F084E08D832DC08EEFEC
:100EA0000E94EE0576018EEFD81AF70181917F013D
:100EB0000E94EE05EC14FD04C1F78FEF0E94EE05D1
:100EC0008FEF0E94EE050E94F5058A878F718530AD
:100ED00071F4011116C0CE010E94E30581E0DF919B
:100EE000CF910F91FF90EF90DF90CF90089581E127
:100EF0008D83CE010E94E305CE010E94E30580E0D0
:100F0000EECF88E592E00E94F805811102C085E1EC
:100F1000C4CF20E030E0A9016DE0CE010E942C0694
:100F2000882311F084E1B9CF0E94F5058111FACF31
:100F3000D2CF0F9340915B0250915C0260915D02B1
:100F400070915E02411551056105710599F0082FF8
:100F500021EE32E08091DF029091E0020E942B07A7
:100F6000882349F010925B0210925C0210925D029D
:100F700010925E0281E00F9108950F93CF93C82FD6
:100F800080915A02811105C0C1E08C2FCF910F9141
:100F9000089540910001509101016091020170910A
:100FA00003010C2F21EE32E08091DF029091E002EC
:100FB0000E942B07811102C0C0E0E7CFCC2321F3B0
:100FC00081E00E9499078823B9F310925A02DDCF7D
:100FD0008F929F92AF92BF92EF92FF920F931F93C7
:100FE000CF934B015C01C42F8091000190910101CE
:100FF000A0910201B091030188159905AA05BB05CE
:1010000051F181E00E94BD0781110BC080E0CF91BA
:101010001F910F91FF90EF90BF90AF909F908F9096
:10102000089581EEE82E82E0F82E00E012E030E034
:1010300020E0B501A4018091DF029091E0020E94BE
:101040008906882319F38092000190920101A092F1
:101050000201B092030140915A024C2B40935A0274
:1010600081E0D5CFCF93DF93EC016E857F858889B2
:10107000998941E00E94E807882351F08A8920E29B
:10108000829FC00111248F519D4FDF91CF91089510
:1010900090E080E0FACF8F929F92AF92BF92CF9272
:1010A000DF92EF92FF92CF932CED35E03093E00288
:1010B0002093DF02882309F46DC040E060E070E017
:1010C000CB010E94E80781110BC080E0CF91FF9017
:1010D000EF90DF90CF90BF90AF909F908F9008954A
:1010E00080919F048F7789F78091AB049091AC0435
:1010F000A091AD04B091AE0484369105A105B1056F
:1011000020F3C090A704D090A804E090A904F09028
:10111000AA04C114D104E104F104B9F240E0C7010A
:10112000B6010E94E807882381F28091EC02909139
:10113000ED028115924049F6A091F102AA2329F20D
:101140006091EF027091F0026115710509F4BDCF55
:101150002091EE02222309F4B8CFA093FA05209340
:10116000EC0590E080E030E0E1E0F0E0C82FAF0176
:10117000082E02C0440F551F0A94E2F724173507C2
:1011800069F041E0480F01968930910579F7409365
:10119000F5059BCFC12CD12C7601C0CF8093F505EE
:1011A0002091F7023091F80250E040E0211531051E
:1011B00041F42091050330910603409107035091BB
:1011C00008032093ED053093EE054093EF0550930F
:1011D000F00546015701860E971EA11CB11C809296
:1011E000FB059092FC05A092FD05B092FE05E091F2
:1011F000F202F091F302F0930106E0930006B0E0F2
:101200000E94DB20DC01CB01880D991DAA1DBB1DAE
:101210008093020690930306A0930406B0930506FC
:1012200025E0EE0FFF1F2A95E1F7E150FE4FEF2F6B
:10123000FF27E6958E0F9F1FA11DB11D8093F60518
:101240009093F705A093F805B093F9058090F40208
:101250009090F502B12CA12C8114910441F480905E
:10126000010390900203A0900303B0900403C81AF6
:10127000D90AEA0AFB0AC80CD91CEA1CFB1C04C0E8
:10128000F694E794D794C794CA95D2F7C092F10523
:10129000D092F205E092F305F092F40585EFC816BE
:1012A0008FE0D806E104F10428F48CE08093FF0578
:1012B00081E00CCF80E125EFC2162FEFD206E104CA
:1012C000F104A0F380910D0390910E03A0910F0300
:1012D000B09110038093020690930306A093040636
:1012E000B093050680E2E2CF4F925F926F927F92B9
:1012F0008F929F92AF92BF92CF92DF92EF92FF9226
:101300000F931F93CF93DF93EC014230510561059A
:10131000710590F480E0DF91CF911F910F91FF90C4
:10132000EF90DF90CF90BF90AF909F908F907F9085
:101330006F905F904F90089589859A85AB85BC85A5
:101340000196A11DB11D84179507A607B70710F3D5
:10135000CB88DC88ED88FE888F89803109F042C017
:10136000BB27A72F962F852F480159012A013B0142
:10137000C80ED91EEA1EFB1E80910001909101014A
:10138000A0910201B0910301C816D906EA06FB0636
:1013900099F58F898031C1F5B301A20155276627E0
:1013A0007727440F551F4F515D4FFA01918280827C
:1013B00080915A02816080935A028A89823080F03B
:1013C0008D819E81AF81B8858C0D9D1DAE1DBF1D89
:1013D00080935B0290935C02A0935D02B0935E02E7
:1013E00081E099CFDB01CA01E7E0B695A795979513
:1013F0008795EA95D1F7B8CF40E0C701B6010E94C2
:10140000E8078111C6CF86CFB301A2014F775527D8
:1014100066277727440F551F440F551F4F515D4FC7
:10142000FA0180829182A282B382C2CF8F929F9270
:10143000AF92BF92CF92DF92EF92FF920F931F93E2
:10144000CF93DF93FC0181859285A385B4850196B6
:10145000A11DB11D84179507A607B70770F480E09A
:10146000DF91CF911F910F91FF90EF90DF90CF9080
:10147000BF90AF909F908F90089583889488A5889F
:10148000B6888789803189F5BB27A72F962F852FAE
:10149000E9016A017B018F01BC01CD01680D791D55
:1014A0008A1D9B1D8090000190900101A090020177
:1014B000B090030186169706A806B90601F5F80153
:1014C0008789803111F5DD24EE24FF24F601EE0F2B
:1014D000FF1FEF51FD4F80819181B0E0A0E0888334
:1014E0009983AA83BB8381E0BBCFDB01CA01C7E03C
:1014F000B695A79597958795CA95D1F7C9CF40E03E
:101500000E94E8078111DBCFAACFE894C7F8DD2459
:10151000EE24FF24F601EE0FFF1FEE0FFF1FEF5129
:10152000FD4F80819181A281B381BF70D8CF4F924E
:101530005F926F927F92AF92BF92CF92DF92EF92C3
:10154000FF920F931F93CF93DF9300D000D0CDB7BE
:10155000DEB78C0149835A836B837C835901C12C8C
:10156000D12C7601412C82E0582E612C712C4981BE
:101570005A816B817C819E012F5F3F4FC8010E9481
:10158000160A882339F1F8018585A301920104C068
:10159000220F331F441F551F8A95D2F7DA01C90164
:1015A000C80ED91EEA1EFB1E49815A816B817C81BF
:1015B0008789803111F188EF9FEFAFEFBFE04817C7
:1015C00059076A077B0798F2F501C082D182E2824F
:1015D000F38281E00F900F900F900F90DF91CF91E9
:1015E0001F910F91FF90EF90DF90CF90BF90AF9041
:1015F0007F906F905F904F90089588EF9FEFA0E0ED
:10160000B0E0DDCFCF93DF93FC012581222321F0D1
:1016100080E0DF91CF910895EC018091FF0580314A
:1016200059F582E08583178A108E118E128E809173
:10163000000690910106B0E0A0E025E0880F991F18
:10164000AA1FBB1F2A95D1F7838B948BA58BB68BD2
:1016500088EE95E09C8F8B8F81E08C831E821F82A9
:10166000188619861A861B861C861D861E861F866E
:10167000188A198A1A8ACDCF803251F683E0858381
:101680004091020650910306609104067091050690
:10169000478B508F618F728F9F012D5E3F4F88EE79
:1016A00095E00E94970A8111D3CFB2CF8F929F927B
:1016B000AF92BF92CF92DF92EF92FF920F931F9360
:1016C000CF93DF93EC018D8181110EC080E0DF911B
:1016D000CF911F910F91FF90EF90DF90CF90BF902F
:1016E000AF909F908F9008950B891C892D893E891A
:1016F000041715072607370748F34A015B018230B4
:1017000031F48A869B86AC86BD8681E0E0CF811469
:101710009104A104B10449F41E821F82188619861F
:101720001A861B861C861D86F0CF0A851B852C8594
:101730003D85EB8DFC8D858590E00996B901A8016A
:101740004150510961097109082E04C076956795C9
:10175000579547950A94D2F775016401E1E0CE1AD6
:10176000D108E108F10804C0F694E794D794C7942F
:101770008A95D2F7C416D506E606F70620F0012BA7
:10178000022B032B11F58F89988DA98DBA8D8E832D
:101790009F83A887B9878E010A5F1F4FC114D104A8
:1017A000E104F10409F4ADCF4E815F81688579854C
:1017B00098018B8D9C8D0E94160A91E0C91AD10860
:1017C000E108F1088111EACF81CFC41AD50AE60AEF
:1017D000F70AE1CF3F924F925F926F927F928F9282
:1017E0009F92AF92BF92CF92DF92EF92FF920F93B0
:1017F0001F93CF93DF93CDB7DEB72C970FB6F89436
:10180000DEBF0FBECDBF5C01DC015B968D909C906E
:101810005C9716964D905D906D907C901997411451
:1018200051046104710409F468C0BFEF4B1A5B0AEC
:101830006B0A7B0A312CF40181859285A385B485DE
:101840009C01AD012F5F3F4F4F4F5F4F29873A8774
:101850004B875C87730162011D821E821F8218867E
:10186000F40181859285A385B4852D813E814F81C8
:101870005885281739074A075B0708F056C089853D
:101880009A85AB85BC858C159D05AE05BF0550F4CA
:1018900082E0C82ED12CE12CF12C92E0492E512C63
:1018A000612C712C9E012F5F3F4FB701A601C4012F
:1018B0000E94160A8823C9F189819A81AB81BC8173
:1018C000892B8A2B8B2B09F1260137019FEF491AAF
:1018D000590A690A790A2D813E814F8158852F5F07
:1018E0003F4F4F4F5F4F2D833E834F8358873FEFCE
:1018F000C31AD30AE30AF30AB3CFF401408051803C
:10190000628073803324339496CFC414D504E604E4
:10191000F70409F70FEF1FEF2FEF3FE0B701A60124
:10192000C4010E947409811119C080E02C960FB681
:10193000F894DEBF0FBECDBFDF91CF911F910F9105
:10194000FF90EF90DF90CF90BF90AF909F908F90DF
:101950007F906F905F904F903F900895D5011696BD
:101960004D915D916D917C911997411551056105DE
:10197000710539F097018601C4010E94740988231A
:10198000A1F2D5011696CD92DD92ED92FC921997B7
:10199000332051F0D701C6010196A11DB11DF401FC
:1019A00080839183A283B383F5018789908DA18D74
:1019B000B28D892B8A2B8B2B39F48481C78AD08EE8
:1019C000E18EF28E80688483F50184818062848355
:1019D00081E0ACCF1F93CF93DF93FC0125812223BD
:1019E00071F1162FEC01848187FF1EC0CF010E9488
:1019F0003208FC01892B19F18D81823040F48B89EA
:101A00009C89AD89BE89848F958FA68FB78F8F896A
:101A1000988D938F828F8F89988DA98DBA8DB58B74
:101A2000A48B8C818F778C83111103C08C818F7E66
:101A30008C83812FDF91CF911F910C94BD0780E0A3
:101A4000DF91CF911F910895FF920F931F93CF9332
:101A5000DF93EC018D81813041F090E080E0DF91F7
:101A6000CF911F910F91FF9008958C8181FFF5CF49
:101A700082FD1BC00091DF021091E002C8010E94AC
:101A800016060E94F505F82EC8010E94E3058FEFA7
:101A9000F812E3CF8C8185FF1BC060E0CE010E946D
:101AA000EA0C8C818F7D8C83D8CF4B895C896D89C2
:101AB0007E898A859B85AC85BD8584179507A60799
:101AC000B707C1F2CE010E94560B8111D3CFC5CF0B
:101AD00040915B0250915C0260915D0270915E02E8
:101AE000452B462B472B21F080E00E949907B5CF6C
:101AF00080618C832A853B85317080E092E0821B77
:101B0000930BADCFCF93DF93EC0161E00E94EA0C21
:101B1000882311F01D8281E0DF91CF9108952F92EB
:101B20003F924F925F926F927F928F929F92AF926D
:101B3000BF92CF92DF92EF92FF920F931F93CF93BA
:101B4000DF9300D000D01F92CDB7DEB77C015B01E0
:101B5000342E5D83DC0115968C911597813009F048
:101B6000CEC014962C9021FECAC022FCB4C0C32C57
:101B7000DD8022947FE027222094B22DB1702B2E9D
:101B8000D7011A964D915D916D917C911D97C1146D
:101B9000D10409F428C15B968D919C915C97FC015E
:101BA00074807A948A019B0169E036952795179590
:101BB00007956A95D1F770228A011170711020C0C3
:101BC00001151105E9F416964D915D916D917C9189
:101BD0001997411551056105710509F099C057968E
:101BE0008D919D910D90BC91A02D0097A105B105FF
:101BF00009F0B0C0C7010E94EA0B882309F47FC036
:101C000080E092E0801B910B46018C159D0508F445
:101C10004C01D7015B964D915C915C9716968D9126
:101C20009D910D90BC91A02D0297A109B109FA01D7
:101C3000258504C0880F991FAA1FBB1F2A95D2F7BC
:101C40004685578560897189840F951FA61FB71F28
:101C50009C01AD01270D311D411D511D29013A0186
:101C6000811432E0930609F07BC0809100019091CD
:101C70000101A0910201B091030184159505A6050B
:101C8000B70559F48FEF9FEFDC018093000190932B
:101C90000101A0930201B0930301022D9501B3014C
:101CA000A2018091DF029091E0020E942B0788231D
:101CB00031F19EEFB91AC818D908F70182859385CA
:101CC000A485B585880D991DA11DB11D82879387B7
:101CD000A487B58755CFF7014389548965897689EB
:101CE00082859385A485B585481759076A077B07C0
:101CF00009F43DCFC7010E94560B811138CF81E016
:101D000090E0D70113969C938E93129780E007C0C2
:101D10009E012F5F3F4F0E94160A811102C090E082
:101D200079C089819A81AB81BC81F701238D348D83
:101D3000F901278948EF5FEF60E070E0203121F082
:101D400048EF5FEF6FEF7FE084179507A607B707AF
:101D500008F050CFF70186839783A087B18750CFD3
:101D60000115110599F5D7011A964D915D916D9167
:101D70007C911D9753968D919D910D90BC91A02DB6
:101D8000481759076A077B0708F181E00E94BD07E1
:101D9000882309F4B4CF409200015092010160926F
:101DA00002017092030180915A02816080935A026D
:101DB000C8018F519D4FD5019C01280D391DFC0193
:101DC0002E173F0759F04D914193FACF41E0C301DF
:101DD000B2010E94E8078111EBCF91CF281B390B8C
:101DE000A20EB31E68CFF70183899489A589B689AD
:101DF00084179507A607B70738F48481438B548B63
:101E0000658B768B80688483F701848183FD1AC09B
:101E1000832D9D810F900F900F900F900F90DF9169
:101E2000CF911F910F91FF90EF90DF90CF90BF90D7
:101E3000AF909F908F907F906F905F904F903F906A
:101E40002F90089561E0C7010E94EA0C882309F4ED
:101E500056CFDECFCF93DF931F92CDB7DEB7698326
:101E600041E050E0BE016F5F7F4F0E948F0D0F90E9
:101E7000DF91CF910895FC01DB0112968D919C9129
:101E800013979383828382E391E0918380831496F6
:101E90008C911497848315968C911597858316964B
:101EA0004D915D916D917C91199746835783608721
:101EB00071871A964D915D916D917C911D97428726
:101EC0005387648775871E964D915D916D917C91C6
:101ED000519746875787608B718B52968C9152979A
:101EE000828B53964D915D916D917C915697438B6A
:101EF000548B658B768B57964D915D916D917C914E
:101F00005A97478B508F618F728F5B968D919C9102
:101F1000948F838F08950895FC01818D928D009791
:101F200019F061E00C94EA0C0895DC015996ED91EA
:101F3000FC913097B9F083899489A589B689428547
:101F4000538564857585841B950BA60BB70B81158E
:101F500020E89207A105B10538F08FEF9FE7A0E0D8
:101F6000B0E0089590E080E00895DC0159968D91ED
:101F70009C91009739F0DC01ED91FC910480F58192
:101F8000E02D099490E080E00895CF93DF93EC0179
:101F9000E98DFA8D309749F481E090E09B838A8344
:101FA00090E080E0DF91CF91089513821282898DB5
:101FB0009A8D0E948F0DE98DFA8D22813381232B1A
:101FC00059F7F0CFCF93DF931F92CDB7DEB7698378
:101FD000DC01ED91FC910280F381E02D41E050E0C5
:101FE000BE016F5F7F4F09950F90DF91CF910895EC
:101FF000682F83E496E00C94E20F2F923F924F9269
:102000005F926F927F928F929F92AF92BF92CF9288
:10201000DF92EF92FF920F931F93CF93DF9300D045
:102020001F92CDB7DEB7FC018581811118C08FEFFB
:102030009FEF0F900F900F90DF91CF911F910F9115
:10204000FF90EF90DF90CF90BF90AF909F908F90D8
:102050007F906F905F904F903F902F900895848174
:1020600080FFE5CF43895489658976898285938588
:10207000A485B585312C212C481759076A077B07A1
:1020800019F022242394312C6F012101CE010196F5
:102090003C01DF011696BB83AA834114510409F465
:1020A000C5C0F60142855385648575854A01F1E016
:1020B0009F22D6015B968D919C915C978A019B0132
:1020C000E9E03695279517950795EA95D1F7159686
:1020D000EC91E230E9F5FC01628D738D848D958D74
:1020E000600F711F821F931FA12C22E0B22EA8182F
:1020F000B9084A145B0408F45201F601248126FD54
:1021000004C0A114F2E0BF0671F400910001109127
:1021100001012091020130910301061717072807DA
:10212000390709F05EC040E00E94E807882309F4FF
:102130007ECFC4018F519D4FD3019C012A0D3B1DC1
:10214000FC012E173F0709F46CC041914D93F9CF64
:10215000DC011496BC90BA94B0228114910479F4F5
:10216000B1100DC0452B462B472B69F5F601878929
:10217000908DA18DB28D86839783A087B187D6017C
:102180005B96ED91FC915C9716966D917D918D918A
:102190009C9119976250710981099109258504C0A4
:1021A000660F771F881F991F2A95D2F70685178516
:1021B00020893189600F711F821F931F6B0D711D64
:1021C000811D911D91CFD60116964D915D916D9116
:1021D0007C9119972A813B810E94160A8111CFCFE9
:1021E00026CF730185019401AB01BC018091DF0210
:1021F0009091E0020E948906882309F418CF6A0CA6
:102200007B1CF60182859385A485B5858A0D9B1D6F
:10221000A11DB11D82879387A487B5874A185B08E3
:102220003CCF281B390B620E731EEBCF2A94232858
:1022300009F0FDCE898190E0FCCEFC01818D928D6C
:10224000009711F00C94FD0F8FEF9FEF08950F93FF
:102250001F93CF93DF93EC01898D9A8D10E000E0FE
:10226000009799F00E94FD0F8C010F3F100769F055
:10227000898D9A8DFC014285538564857585415011
:102280005109610971090E94560BC801DF91CF9174
:102290001F910F9108958F929F92AF92BF92CF920C
:1022A000DF92EF92FF920F931F93CF93DF9300D0B3
:1022B00000D0CDB7DEB7FC018581813091F080E0A0
:1022C0000F900F900F900F90DF91CF911F910F9172
:1022D000FF90EF90DF90CF90BF90AF909F908F9046
:1022E0000895848181FFEBCF83899489A589B6897C
:1022F000892B8A2B8B2B09F45FC07F0140E050E0D3
:10230000BA01CF010E94560B8823C9F2F701C38C92
:10231000D48C8788908CA18CB28C82E090E0A0E075
:10232000B0E0F60180839183A283B3839E012F5F87
:102330003F4FB501A401C6010E94160A882309F483
:10234000BECF00E010E09801B501A401C6010E94D3
:102350007409882309F4B3CF89809A80AB80BC804C
:10236000F6018789803119F188EF9FEFAFEFBFE069
:1023700088169906AA06BB06C8F2F701178A108EBE
:10238000118E128E138A148A158A168A84818068A7
:10239000848361E0C7010E94EA0C882309F48FCF8F
:1023A00040E050E0BA01C7010E94560B89CF88EF88
:1023B0009FEFA0E0B0E0DCCF81E082CFCF92DF9250
:1023C000EF92FF921F93CF93DF93EC0180E2689F1F
:1023D000F0011124EF51FD4F9385917161F0842F2D
:1023E000827449F080E0DF91CF911F91FF90EF90D0
:1023F000DF90CF900895142F6A8B80910001909107
:102400000101A0910201B09103018E879F87A88BE3
:10241000B98BC488D588F12CE12C7601DD24CC243D
:10242000CF8AD88EE98EFA8E828D938DB0E0A0E0AF
:10243000AC01BD014C295D296E297F294F8B588F36
:10244000698F7A8F83858871B1F4848D958DA68D7F
:10245000B78D8B8B9C8BAD8BBE8B81E08D831F707A
:102460001C831E821F82188619861A861B861C866C
:102470001D8681E0B8CF803109F0B4CF9E012D5E7A
:102480003F4F8B8D9C8D0E94970A882309F4AACF19
:1024900084E0E4CFFB0101900020E9F73197AF0120
:1024A000461B570BDC01ED91FC910280F381E02D7E
:1024B00009948F929F92AF92BF920F931F93CF93E5
:1024C000DF93CDB7DEB7A1970FB6F894DEBF0FBE8E
:1024D000CDBF19A2423008F44AE08E010F5D1F4FB4
:1024E000842E912CB12CA12CA50194010E940D22C7
:1024F000E62FB901CA01EA3004F5E05DD801EE9398
:102500008D01232B242B252B79F790E080E0109769
:1025100029F0BD0183E496E00E944A12A1960FB60D
:10252000F894DEBF0FBECDBFDF91CF911F910F9109
:10253000BF90AF909F908F900895E95CDFCF682F98
:1025400070E090E080E04AE00C9459124F925F9264
:102550006F927F928F929F92AF92BF92CF92DF92B3
:10256000EF92FF920F931F93CF936B017C01742E18
:10257000AC019B010E9408226CE471E0811126C02D
:1025800046015701E894B7F82FEF3FEF4FE75FE7B9
:10259000C501B4010E94082281110CC02FEF3FEF4A
:1025A0004FE75FE7C501B4010E94B71F60E571E026
:1025B000181664F02FEF3FEF4FE75FE4C701B60155
:1025C0000E9403221816ACF464E571E083E496E0FF
:1025D000CF911F910F91FF90EF90DF90CF90BF9020
:1025E000AF909F908F907F906F905F904F900C94E2
:1025F0004A122FEF3FEF4FE75FECC701B6010E9491
:10260000B71F87FDE1CF20E030E0A901C701B60187
:102610000E94B71F10E000E087FF08C08DE20E9413
:10262000F80F8C01F7FAF094F7F8F094C0E060E04E
:1026300070E080E09FE37C1641F020E030E040E273
:1026400051E40E946221CF5FF6CFA70196010E945C
:10265000F6202B013C010E94D4214B015C014AE091
:102660000E9459127C01E00EF11ECC23B1F1C5018C
:10267000B4010E94BC1F9B01AC01C301B2010E94C6
:10268000F5204B015C018EE20E94F80FE80EF91E66
:10269000C15018F120E030E040E251E4C501B4013E
:1026A0000E941D202B013C010E94D4214B01B12C22
:1026B000A12C4AE0C501B4010E945912E80EF91E8E
:1026C000C501B4010E94BC1F9B01AC01C301B20152
:1026D0000E94F5204B015C01DBCFC701CF911F9118
:1026E0000F91FF90EF90DF90CF90BF90AF909F90B1
:1026F0008F907F906F905F904F900895CF93DF936E
:10270000BC0181E395E00E944A12EC0168E571E0AA
:1027100081E395E00E944A128C0F9D1FDF91CF91BB
:1027200008956115710511F00C944A1290E080E053
:102730000895EC016BE571E081E395E00E9491134F
:10274000CE010E947E1361E0809138060E9418023B
:10275000FFCF85ED8093BC008091090590910A051B
:10276000A0910B05B0910C050796A11DB11D23E0AA
:10277000B695A795979587952A95D1F72091BC0096
:1027800024FD03C01092070508954091090550915A
:102790000A0560910B0570910C05452B462B472BC4
:1027A00069F30097A105B10541F025E32A95F1F7FA
:1027B00000000197A109B109E1CF809108050C94AF
:1027C00043043F924F925F926F927F928F929F92BB
:1027D000AF92BF92CF92DF92EF92FF920F931F932F
:1027E000CF93DF93CDB7DEB72B970FB6F894DEBF4C
:1027F0000FBECDBF7C01DC0115968C91811115C0F7
:10280000FE013196CE010C966F0130E23193E8174C
:10281000F907E1F7DA0130E087E09D91B92E9923BD
:1028200029F19E3239F48A3011F480E0DAC038E0C0
:102830008AE0F3CFE8E6F0E04491442321F03196BA
:102840009413FACFF2CF831780F34FED490F4E3533
:1028500060F74FE9490F4A3118F440EEB42EB90E33
:10286000F601E30FF11DB0823F5FD7CF898180323F
:10287000E1F2322E8B01FB01838D948DD7015C96A2
:102880009C938E935B971682178210861186128610
:10289000138614861586F80182859385A485B585EF
:1028A000438954896589768984179507A607B707F0
:1028B00008F04DC025E0B695A795979587952A9580
:1028C000D1F7F82FFF70AF2ED80115968C9182307A
:1028D00008F4ABCFC8010E94FD0F97FDA6CFF80109
:1028E00082859385A485B5854F96A11DB11D8287EC
:1028F0009387A487B587F0E2AF9EB00111246F5192
:102900007D4F6115710509F490CFDB018C9188230F
:1029100041F0853E09F058C0BB2029F0BB24B39498
:10292000BACFB1100EC0F701A28A80910001909138
:102930000101A0910201B091030186879787A08BC6
:10294000B18BDB018C918111E9CFBB24B394832D32
:102950008271823109F069CFBB2009F45AC0C701E6
:102960000E943208009709F460CF20E2FC01119226
:102970002A95E9F72BE0F601DC0101900D922A95EA
:10298000E1F721E238E2DC0151963C932E93509717
:1029900040E058E01F965C934E931E9753963C93ED
:1029A0002E93529759963C932E93589757965C9333
:1029B0004E93569781E00E94BD07882309F435CFD6
:1029C000432DF70162890AC04BE050E0C6010E9426
:1029D0005A23892B09F05FCF432D6A2DC7010E942E
:1029E000DE112B960FB6F894DEBF0FBECDBFDF9180
:1029F000CF911F910F91FF90EF90DF90CF90BF90FC
:102A0000AF909F908F907F906F905F904F903F908E
:102A10000895F8018581823009F407CFC8010E942A
:102A2000EA0B882309F401CFD8015B96ED91FC9164
:102A30005C9716968D909D90AD90BC901997B2E0E2
:102A40008B1A9108A108B108858504C0880C991CCF
:102A5000AA1CBB1C8A95D2F786859785A089B18967
:102A6000880E991EAA1EBB1E848124013501480EC2
:102A7000511C611C711C84149504A604B70409F14F
:102A8000E1E04E1A51086108710881E00E94BD071B
:102A9000882309F4CACEE1EEF2E0119281EE94E0CF
:102AA0008E179F07D1F7409200015092010160926A
:102AB00002017092030180915A02816080935A0250
:102AC000DACFD8015B96ED91FC91258580E092E00C
:102AD000A0E0B0E004C0880F991FAA1FBB1F2A9571
:102AE000D2F7F8014389548965897689840F951F47
:102AF000A61FB71F838B948BA58BB68BD7015296DD
:102B00001C9281EE92E031CF4F925F926F927F9252
:102B10008F929F92AF92BF92CF92DF92EF92FF92ED
:102B20000F931F93CF93DF93CDB7DEB7C754D1096F
:102B30000FB6F894DEBF0FBECDBF5C013B0119A2FA
:102B400018A282E391E09F8F8E8F1BA21C821B82B2
:102B50009A8389831E8210E000E06E018EE1C80E28
:102B6000D11C86E0E82E86E0F82EF501E00FF11F7B
:102B700080818F3211F40F5F1F4FD501A00FB11F5D
:102B8000FE01FB9690E080E04F012D912F3249F03D
:102B9000222339F00F5F1F4F019621938C3091054E
:102BA000A1F7880D991DFC011082F501E00FF11FBE
:102BB00080818F3211F40F5F1F4FF501E00FF11F7D
:102BC000408041E0411040E030E020E0B401C70126
:102BD000F3010995582E81111FC0F6E0EF16F6E0BB
:102BE000FF0699F5512C852DC95BDF4F0FB6F89480
:102BF000DEBF0FBECDBFDF91CF911F910F91FF9030
:102C0000EF90DF90CF90BF90AF909F908F907F908C
:102C10006F905F904F900895442091F021E0A401BF
:102C2000B701C6010E94E113982E86E0E81686E0FF
:102C3000F80679F0C7010E94820D91100FC0D2CF23
:102C400096E0E91696E0F90671F2C7010E94820D3E
:102C5000CACF992039F2FE0131967F019E2D8F2D2A
:102C60007601C92ED82E81CF1F93CF93DF93CDB796
:102C7000DEB76D970FB6F894DEBF0FBECDBFAB01C8
:102C80001C821B8222E331E03A8329831E8221E0E9
:102C9000BC01CE0101960E94E11311E081110CC02C
:102CA00010E0812F6D960FB6F894DEBF0FBECDBF3A
:102CB000DF91CF911F910895CE0101960E94820D60
:102CC000F0CFCF93DF93CDB7DEB76D970FB6F89403
:102CD000DEBF0FBECDBF442399F1AB01BC011C8206
:102CE0001B8282E391E09A8389831E8222E0CE01D7
:102CF00001960E94E11381110EC090E081E09111D4
:102D000001C080E06D960FB6F894DEBF0FBECDBF58
:102D1000DF91CF910895CE0101960E944B11882337
:102D200061F3CE0101960E943208009731F325EE3F
:102D3000FC0120831E8281E00E94BD07982FDECF18
:102D400081E0E0CFEF92FF920F931F93CF93DF9339
:102D5000EC017B018A011B821A8288EE93E0A0E0DD
:102D6000B0E08C839D83AE83BF838EE391E0998333
:102D700088838DE190E00E9435229A8F898F009799
:102D800079F02DE1F701DC0101900D922A95E1F730
:102D90004CE050E0B801CE010C960E947923188EC9
:102DA000DF91CF911F910F91FF90EF9008952F9297
:102DB0003F924F925F926F927F928F929F92AF92CB
:102DC000BF92CF92DF92EF92FF920F931F93CF9318
:102DD000DF93CDB7DEB7C656D1090FB6F894DEBF84
:102DE0000FBECDBF5C013B0119A218A282E391E0A6
:102DF0009F8F8E8F1BA21C821B829A8389831E82C7
:102E00004E018EE1880E911CC4010E94020B6301E9
:102E10008E010F5F1F4F240118016FE270E0C601A1
:102E20000E946723009709F459C0F60120812F32D0
:102E300071F4FFEFCF1ADF0A902F812F8201492E04
:102E4000582E942D852D2801092F182FE6CF8C1987
:102E50008D3008F08CE0E82EF12CA701B601CE01F0
:102E6000885A9F4F0E947923E8E5F0E0EC0FFD1FA0
:102E7000EE0DFF1D1082C8010E94820D21E0AE01FF
:102E8000485A5F4FB201C8010E94E113811120C06E
:102E90001EAE1DAE82E391E09CAF8BAF21961FAEBC
:102EA0002197A796EEADFFADA7976E0E7F1EF3019B
:102EB0008081811120C0BE01655C7F4FC1010E94ED
:102EC0003B0F43E651E0B101C5010E94A21631C09B
:102ED000CE0CDF1CC2010E94820DB3CFC601861941
:102EE0009709A7969FAF8EAFA797B201CE01CB9659
:102EF0000E943B0FD6CF19A218A282E391E09F8FC8
:102F00008E8F1BA221968FAD219781112DC0F501C7
:102F10001382128288EE93E0A0E0B0E08483958370
:102F2000A683B7838EE391E091838083128E118E06
:102F30001486C501CA59DF4F0FB6F894DEBF0FBE25
:102F4000CDBFDF91CF911F910F91FF90EF90DF9058
:102F5000CF90BF90AF909F908F907F906F905F9039
:102F60004F903F902F90089527E1A301BE01655C2B
:102F70007F4FC4010E94E113882349F2CE01CB9612
:102F80000E94820D49A95AA96BA97CA9C4010E947B
:102F9000560BB401C1010E943B0FA30194CF1F92B5
:102FA0000F920FB60F9211242F933F934F935F937D
:102FB0006F937F938F939F93AF93BF93EF93FF9301
:102FC00081E395E00E948901FF91EF91BF91AF915C
:102FD0009F918F917F916F915F914F913F912F9131
:102FE0000F900FBE0F901F9018951F920F920FB663
:102FF0000F9211242F938F939F93EF93FF93E09160
:103000004105F09142058081E0914705F091480526
:1030100082FD1BC0908180914A058F5F8F73209144
:103020004B05821741F0E0914A05F0E0EF5CFA4F62
:10303000958F80934A05FF91EF919F918F912F91EA
:103040000F900FBE0F901F9018958081F4CF1F92A4
:103050000F920FB60F9211242F933F938F939F934C
:10306000AF93BF938091A4029091A502A091A60274
:10307000B091A7023091A30223E0230F2D3758F51A
:103080000196A11DB11D2093A3028093A4029093E9
:10309000A502A093A602B093A7028091A8029091E6
:1030A000A902A091AA02B091AB020196A11DB11D87
:1030B0008093A8029093A902A093AA02B093AB02B6
:1030C000BF91AF919F918F913F912F910F900FBE24
:1030D0000F901F90189526E8230F0296A11DB11D91
:1030E000D2CF1F920F920FB60F9211242F933F93BE
:1030F0004F935F936F937F938F939F93AF93BF9300
:10310000EF93FF938091B900887F803609F44AC01D
:10311000F0F5883209F4A7C018F5803109F49BC096
:10312000B8F4882309F4F9C0883009F494C0FF91F9
:10313000EF91BF91AF919F918F917F916F915F912F
:103140004F913F912F910F900FBE0F901F901895A8
:10315000883109F488C0803251F78093050514C086
:10316000803409F49DC040F48033B9F38833F9F614
:103170008093050585ECB0C0803509F485C088359D
:1031800009F496C0883499F60E94A913D0CF8839E3
:1031900009F48CC038F5883729F050F4883611F0DE
:1031A000803729F683E0809307051092A20257C06A
:1031B000883809F47BC0803919F0803809F0B7CF1E
:1031C0008091A202803208F071C0E091A20281E0F9
:1031D0008E0F8093A2028091BB00F0E0EE57FD4F6E
:1031E00080833DC0803B39F0E0F4803A09F479C037
:1031F000883A09F09CCF84E0809307051092810201
:1032000010928002E091AC02F091AD02099580919C
:10321000800281110FC081E08093800210926002D1
:1032200009C0803C09F4A6CF883C09F4A3CF883BB1
:1032300009F07DCFE091810281E08E0F80938102C1
:10324000F0E0E05AFD4F80818093BB0090918102B5
:103250008091800229C08091E2048093BB0085ECBC
:103260008093BC0064CF909104058091030598176A
:1032700058F5E091040581E08E0F80930405F0E09D
:10328000ED51FB4F8081E9CFE091040581E08E0F85
:10329000809304058091BB00F0E0ED51FB4F8083EB
:1032A00090910405809103059817C8F285E8D8CF5E
:1032B000E091040581E08E0F809304058091BB00AE
:1032C000F0E0ED51FB4F80838091060581115CCFCA
:1032D00081E08093E10484EA8093BC0010920705AA
:1032E00026CF85EC8093BC00109207058091A20246
:1032F000803230F4E091A202F0E0EE57FD4F1082F0
:103300006091A20270E0E091AE02F091AF0282E81B
:1033100092E009951092A2020ACF1092050534CFCF
:10332000E1E3F5E01382128288EE93E0A0E0B0E0E2
:1033300084839583A683B7832EE031E03183208395
:1033400025EC30E03587248724EC30E0378726876A
:1033500020EC30E0318B208B21EC30E0338B228B62
:1033600022EC30E0358B248B26EC30E0378B268B3B
:10337000118E128E138E148EEEECF5E013821282F3
:1033800084839583A683B78320E231E03183208351
:10339000EAEDF5E020E520831182ECEDF5E0158201
:1033A00016821186138642E050E060E070E04487A8
:1033B00055876687778713A215A614A622E331E006
:1033C00033A722A717A6E8E3F6E022E030E0318336
:1033D000208323E030E0338322832AE030E035830A
:1033E000248320E137E23783268328EE33E03187D8
:1033F000208727E02287168615868787908BA18BEA
:10340000B28B8EE391E09487838715A214A2178A6A
:1034100085E691E090A787A3A5E2B6E084E0159643
:103420008C93159786E116968C931697EDECF0E049
:10343000E4911796EC931797E9EBF0E0E491189676
:10344000EC93189740E85EE360E070E01D964D93C2
:103450005D936D937C9350970895CF93DF93CDB791
:10346000DEB76B970FB6F894DEBF0FBECDBF789472
:1034700084B5826084BD84B5816084BD85B5826079
:1034800085BD85B5816085BD80916E00816080932A
:103490006E00109281008091810082608093810093
:1034A00080918100816080938100809180008160A3
:1034B000809380008091B10084608093B1008091FE
:1034C000B00081608093B00080917A008460809326
:1034D0007A0080917A00826080937A0080917A00ED
:1034E000816080937A0080917A00806880937A006E
:1034F0001092C100E0914105F091420582E0808385
:10350000E0913D05F0913E051082E0913F05F0917C
:1035100040058FEC808310924905E0914505F091BC
:10352000460586E08083E0914305F0914405808163
:1035300080618083E0914305F0914405808188603B
:103540008083E0914305F091440580818068808309
:10355000E0914305F091440580818F7D808362E096
:1035600080912A060E9464020E94EC02605D77400E
:103570008109910960932E0670932F06809330067F
:103580009093310687E38093370683E090E0909331
:103590003B0680933A0682E090E090933906809350
:1035A000380680E197E290933F0680933E0680EDD7
:1035B00097E0909341068093400661E082E00E948C
:1035C000640261E080913A060E9464028FE691E015
:1035D0000E947E1361E080913C060E94640210917B
:1035E0003C0680910B06882321F086E096E00E943D
:1035F000820D1092E7051092E5051092E2051092F7
:10360000E1051093E0050E94EC028B0161E08091DE
:10361000E0050E94640261E08091E0050E941802CA
:10362000FFB6F8948091B002811127C0EFEBF0E073
:103630008491E3EDF0E09491E82FF0E0EE0FFF1FAE
:10364000EA56FF4FA591B491EC91E92321F461E092
:103650008AE00E94180261E08AE00E9464028CB550
:1036600080618CBD8CB580648CBD61E08DE00E9472
:10367000640261E08BE00E9464028091B0028F5F7F
:103680008093B002FFBE82E58093DA051092DB05DD
:103690008091DA059091DB050E9413064AE0F42E32
:1036A0008FEF0E94EE05FA94F110FACF8CED95E0C1
:1036B0000E94160620E030E0A90160E08CED95E064
:1036C0000E942C06F82E8093E60581E0F81691F012
:1036D0000E94EC02601B710B613D774058F381E062
:1036E0008093E1058CED95E00E94E30589E991E086
:1036F0000E9499132AEA31E040E050E068E08CED46
:1037000095E00E942C0682FF2AC0F092E705809186
:10371000E705C12CD12CE12C20E4F22E823019F0E7
:10372000C12CD12C760120E030E0A90167E38CEDBB
:1037300095E00E942C06A701960169E28CED95E0C8
:103740000E942C068093E6058823D1F00E94EC02AB
:10375000601B710B613D774030F388E0C1CF34E0EE
:10376000F32E0E94F5058093E605FA94F110F9CF47
:103770008A3A11F082E0B4CF82E08093E705C7CFA8
:103780008091E7058230D1F420E030E0A9016AE3BE
:103790008CED95E00E942C06882311F086E0A0CFE6
:1037A0000E94F505807C803C19F483E08093E70556
:1037B0000E94F5050E94F5050E94F5058CED95E047
:1037C0000E94E30580E58093DA051092DB0581E035
:1037D0000E944B08882309F495C086E096E00E9479
:1037E000020B882309F482CF87E891E00E947E13C0
:1037F0001092B2021092B10210920E051092300592
:103800000E94250489E091E09093AD028093AC0280
:103810008AE091E09093AF028093AE020E9425046B
:1038200081E080930D0588E680932F0581E00E945A
:10383000640481116EC061E080913A060E94180212
:1038400064EF71E080E090E00E94BA0260E0809155
:103850003A060E9418026AEF70E080E090E00E9451
:10386000BA0261E080913A060E94180264E670E0B4
:1038700080E090E00E94BA0260E080913A060E94E7
:10388000180264E670E080E090E00E94BA0261E015
:1038900080913A060E94180264E670E080E090E0B1
:1038A0000E94BA0260E080913A060E94180260EC21
:1038B00071E080915F06909160060E94722364E33C
:1038C00076E180915F06909160060E9484152091B8
:1038D0005F063091600681111FC0B901CE010196CB
:1038E0000E94D716CE0101960E949A00E0915C06D4
:1038F000F0915D06309719F08581811131C083EE1A
:1039000091E0F6CE80E00E944B08882309F4EECEC9
:1039100064CF85EB91E0ECCE61E676E1C9010E94CF
:10392000841569EC71E081E395E00E949113609148
:103930005F067091600681E395E00E9491138AED25
:1039400091E00E947E1360915F0670916006CE0147
:1039500001960E94D716CE0101960E949A00AFCF21
:1039600067EF71E083E496E00E9491138091420634
:1039700082FF0CC06DE072E083E496E00E94911338
:103980006FE072E083E496E00E94911369E571E0D4
:1039900083E496E00E94911315EE212E00E0802E24
:1039A00000E0902E88E6782E66246A9496E0592EE0
:1039B000A0E44A2EB5EC3B2E40927C0080917A0028
:1039C000806480937A0080917A0086FDFCCF80919C
:1039D000780060917900762F682F072E000C880BF5
:1039E000990B0E94BE1F20E030E04AEF5EE30E9488
:1039F0001D206093DB027093DC028093DD029093C4
:103A0000DE020E94F802882351F080912B068B3051
:103A100030F08D3058F08551823008F45DC0C12CF3
:103A2000D12CF0ECEF2EFFE7FF2E1EC06091260692
:103A300070E090E080E00E94BE1F2DEC3CEC4CEC6E
:103A40005DE30E941D206B017C016091250670E002
:103A500090E080E00E94BE1F9B01AC01C701B6014F
:103A60000E94F6206B017C010E94EC020091D702BB
:103A70001091D8022091D9023091DA02AB01BC0139
:103A8000401B510B620B730B8091400690914106D5
:103A9000092E000CAA0BBB0B481759076A077B07B6
:103AA00008F42CC20E94EC026093D7027093D802F3
:103AB0008093D9029093DA02E0915C06F0915D0662
:103AC000309719F08581811119C08091420683FFDA
:103AD00015C08FE192E00CCE60912506709126060C
:103AE00076276727762790E080E00E94BC1F2DECA8
:103AF0003CEC4CEC5DE30E941D20B4CF6091DB02F6
:103B00007091DC028091DD029091DE0242E00E9421
:103B1000A61260E372E083E496E00E94911342E013
:103B2000C701B6010E94A61260E372E083E496E04A
:103B30000E9491138091420682FF75C1E0EAF0E095
:103B400081E09491823009F49F5F3196911103C016
:103B50008F5F8C30B1F70E94EC024AE00E9459124C
:103B600060E372E083E496E00E94911381E0809329
:103B70000D0570922F0510920E051092300560E031
:103B80008EEC95E00E94AB0581E00E9464040E94E7
:103B900095026B017C0180910705811162C081E073
:103BA0008093070580930605609205051092040531
:103BB000509203058093E2048091E204806D80932B
:103BC000E2048091E104813009F0AAC11092E1047D
:103BD0000E9495026B017C018091E2048093BB00FE
:103BE0008091090590910A05A0910B05B0910C05F3
:103BF000892B8A2B8B2BA1F00E949502009109053D
:103C000010910A0520910B0530910C056C197D0966
:103C10008E099F09061717072807390708F442C0BD
:103C20008091BC0083FDD8CF3092BC000E949502E9
:103C30006B017C0180910705813009F474C180918A
:103C40000405873008F091C180910405A3EEB4E02B
:103C5000E3EBF2E090E0981751F12D9121939F5FF3
:103C6000FACF8091090590910A05A0910B05B091BA
:103C70000C05892B8A2B8B2B09F48DCF0E94950282
:103C80000091090510910A0520910B0530910C0552
:103C90006C197D098E099F09061717072807390730
:103CA00008F079CF809108050E94430480E01092CB
:103CB000B2028093B1028EEC95E00E9464058F778A
:103CC000282F30E094E0359527959A95E1F7922FCB
:103CD000990F990F122F191B110F180F8EEC95E0E9
:103CE0000E9464059C0144E0359527954A95E1F7CB
:103CF0002F703327922F990F990F022F091B000F56
:103D0000080F8EEC95E00E9464059C0154E0359507
:103D100027955A95E1F72F703327922F990F990F16
:103D2000F22EF91AFF0CF80E8EEC95E00E94640555
:103D30008EEC95E00E9464059C0164E03595279522
:103D40006A95E1F72F703327922F990F990FE22E82
:103D5000E91AEE0CE80E8EEC95E00E9464059C01D9
:103D600074E0359527957A95E1F72F703327922FD8
:103D7000990F990FD22ED91ADD0CD80E8EEC95E042
:103D80000E9464055C0160E372E083E496E00E94B7
:103D9000911382E20E94F80FB501E4E075956795F2
:103DA000EA95E1F76F707727862F880F880F681BD9
:103DB000660FA60E6A2D70E06053784F90E080E0A9
:103DC0004AE00E94591263E671E083E496E00E94A3
:103DD00091138D2D0E949F1263E671E083E496E0BB
:103DE0000E9491138E2D0E949F1263E372E083E480
:103DF00096E00E9491138F2D0E949F1266E372E05D
:103E000083E496E00E949113802F0E949F1266E344
:103E100072E083E496E00E949113812F0E949F122A
:103E200082E20E94F80F8091420680FF10C061E09C
:103E300080913A060E94180262E370E080E090E010
:103E40000E94BA0260E080913A060E94180269E579
:103E500071E083E496E00E94911388E392E00E946F
:103E60007E130E94EC020091D3021091D4022091A3
:103E7000D5023091D602AB01BC01401B510B620B45
:103E8000730B80913E0690913F06092E000CAA0B01
:103E9000BB0B481759076A077B0780F10E94EC02A9
:103EA0006093D3027093D4028093D5029093D6028C
:103EB00083E496E00E948C0F8091420681FF1AC035
:103EC00061E0809138060E94180261E080913A0614
:103ED0000E94180262E370E080E090E00E94BA0263
:103EE00060E0809138060E94180260E080913A06F6
:103EF0000E94180287E492E00E947E1368EE73E04D
:103F000080E090E00E94BA028114910409F454CD3B
:103F10000E947501882309F44BCD0E94000048CD12
:103F20002092BC0083CE8091090590910A05A09152
:103F30000B05B0910C05892B8A2B8B2B09F47ACEBB
:103F40000E9495020091090510910A0520910B0528
:103F500030910C056C197D098E099F09061717070A
:103F60002807390708F066CE9DCE87E06FCE0E9405
:103F7000F91F08F481E00895E89409C097FB3EF426
:103F800090958095709561957F4F8F4F9F4F9923A6
:103F9000A9F0F92F96E9BB279395F6958795779524
:103FA0006795B795F111F8CFFAF4BB0F11F460FFE4
:103FB0001BC06F5F7F4F8F4F9F4F16C0882311F03C
:103FC00096E911C0772321F09EE8872F762F05C050
:103FD000662371F096E8862F70E060E02AF09A95EB
:103FE000660F771F881FDAF7880F9695879597F9E0
:103FF0000895990F0008550FAA0BE0E8FEEF16167A
:104000001706E807F907C0F012161306E407F507CC
:1040100098F0621B730B840B950B39F40A2661F040
:10402000232B242B252B21F408950A2609F4A140E3
:10403000A6958FEF811D811D08950E9430200C945C
:10404000A1200E94932038F00E949A2020F095230E
:1040500011F00C948A200C94902011240C94D520FB
:104060000E94B22070F3959FC1F3950F50E0551F49
:10407000629FF001729FBB27F00DB11D639FAA27BD
:10408000F00DB11DAA1F649F6627B00DA11D661F0C
:10409000829F2227B00DA11D621F739FB00DA11D2D
:1040A000621F839FA00D611D221F749F3327A00DE7
:1040B000611D231F849F600D211D822F762F6A2F83
:1040C00011249F5750409AF0F1F088234AF0EE0FE8
:1040D000FF1FBB1F661F771F881F91505040A9F715
:1040E0009E3F510580F00C948A200C94D5205F3FB0
:1040F000E4F3983ED4F3869577956795B795F79551
:10410000E7959F5FC1F7FE2B880F911D96958795C8
:1041100097F9089597F99F6780E870E060E0089547
:104120009FEF80EC089500240A94161617061806CF
:104130000906089500240A941216130614060506AB
:104140000895092E0394000C11F4882352F0BB0F3C
:1041500040F4BF2B11F460FF04C06F5F7F4F8F4F9F
:104160009F4F089557FD9058440F551F59F05F3FDA
:1041700071F04795880F97FB991F61F09F3F79F089
:1041800087950895121613061406551FF2CF46950B
:10419000F1DF08C0161617061806991FF1CF86958D
:1041A0007105610508940895E894BB276627772771
:1041B000CB0197F908950E94E620A59F900DB49F2A
:1041C000900DA49F800D911D11240895A29FB00110
:1041D000B39FC001A39F700D811D1124911DB29F3B
:1041E000700D811D1124911D08955058BB27AA27D9
:1041F0000E940D210C94A1200E94932038F00E946F
:104200009A2020F039F49F3F19F426F40C94902062
:104210000EF4E095E7FB0C948A20E92F0E94B2206F
:1042200058F3BA17620773078407950720F079F4EB
:10423000A6F50C94D4200EF4E0950B2EBA2FA02DE9
:104240000B01B90190010C01CA01A0011124FF2743
:10425000591B99F0593F50F4503E68F11A16F0403E
:10426000A22F232F342F4427585FF3CF469537953D
:104270002795A795F0405395C9F77EF41F16BA0B02
:10428000620B730B840BBAF09150A1F0FF0FBB1FB0
:10429000661F771F881FC2F70EC0BA0F621F731FF9
:1042A000841F48F4879577956795B795F7959E3F56
:1042B00008F0B0CF9395880F08F09927EE0F9795E7
:1042C000879508950E9476210C94A1200E949A203F
:1042D00058F00E94932040F029F45F3F29F00C949D
:1042E0008A2051110C94D5200C9490200E94B22069
:1042F00068F39923B1F3552391F3951B550BBB2715
:10430000AA2762177307840738F09F5F5F4F220F59
:10431000331F441FAA1FA9F335D00E2E3AF0E0E850
:1043200032D091505040E695001CCAF72BD0FE2F9A
:1043300029D0660F771F881FBB1F2617370748072E
:10434000AB07B0E809F0BB0B802DBF01FF279358E6
:104350005F4F3AF09E3F510578F00C948A200C9400
:10436000D5205F3FE4F3983ED4F386957795679523
:10437000B795F7959F5FC9F7880F911D969587951B
:1043800097F90895E1E0660F771F881FBB1F62173A
:1043900073078407BA0720F0621B730B840BBA0BF8
:1043A000EE1F88F7E09508950E94BA2088F09F5785
:1043B00098F0B92F9927B751B0F0E1F0660F771F49
:1043C000881F991F1AF0BA95C9F714C0B13091F03F
:1043D0000E94D420B1E008950C94D420672F782F48
:1043E0008827B85F39F0B93FCCF386957795679504
:1043F000B395D9F73EF490958095709561957F4F70
:104400008F4F9F4F08950E94F91F08F48FEF089572
:104410000E94F91F880B990B0895A1E21A2EAA1B7E
:10442000BB1BFD010DC0AA1FBB1FEE1FFF1FA21764
:10443000B307E407F50720F0A21BB30BE40BF50B61
:10444000661F771F881F991F1A9469F760957095EA
:10445000809590959B01AC01BD01CF010895EE0FB1
:10446000FF1F0590F491E02D09940F931F93CF93B4
:10447000DF938230910510F482E090E0E0916306D2
:10448000F091640630E020E0B0E0A0E0309799F4CD
:104490002115310509F44AC0281B390B2430310598
:1044A000D8F58A819B816115710589F1FB019383A0
:1044B0008283FE0111C0408151810281138148171E
:1044C0005907E0F04817590799F4109761F01296D0
:1044D0000C93129713961C933296CF01DF91CF91D4
:1044E0001F910F9108950093630610936406F4CF13
:1044F0002115310551F04217530738F0A901DB01AE
:104500009A01BD01DF01F801C1CFEF01F9CF90930E
:10451000640680936306CDCFFE01E20FF31F819303
:1045200091932250310939832883D7CF2091610696
:1045300030916206232B41F420910601309107014E
:1045400030936206209361062091040130910501A9
:104550002115310541F42DB73EB740910801509126
:104560000901241B350BE0916106F0916206E21708
:10457000F307A0F42E1B3F0B2817390778F0AC0186
:104580004E5F5F4F2417350748F04E0F5F1F509363
:10459000620640936106819391939FCFF0E0E0E043
:1045A0009CCFCF93DF930097E9F0FC013297138201
:1045B0001282A0916306B0916406ED0130E020E024
:1045C0001097A1F420813181820F931F2091610601
:1045D000309162062817390709F061C0F09362062E
:1045E000E0936106DF91CF910895EA01CE17DF07CE
:1045F000E8F54A815B819E0141155105B1F7E9015A
:10460000FB83EA8349915991C40FD51FEC17FD072D
:1046100061F4808191810296840F951FE90199834D
:104620008883828193819B838A83F0E0E0E0129605
:104630008D919C9113970097B9F52D913C9111970D
:10464000CD010296820F931F209161063091620680
:104650002817390739F6309751F5109264061092F1
:104660006306B0936206A0936106BCCFD383C28376
:1046700040815181840F951FC817D90761F44E5F9F
:104680005F4F88819981480F591F518340838A81E8
:104690009B81938382832115310509F0B0CFF0937C
:1046A0006406E09363069ECFFD01DC01C0CF138258
:1046B0001282D7CFFB01DC0104C08D9101908019DB
:1046C00021F441505040C8F7881B990B0895FC0114
:1046D0008191861721F08823D9F79927089531977A
:1046E000CF010895FB01DC0101900D920020E1F75C
:1046F0000895FB01DC014150504048F001900D92BB
:104700000020C9F701C01D9241505040E0F70895C4
:04471000F894FFCF4B
:10471400FFFFFFFF00006506800000000000AB0102
:104724000B013801F801690147015B010000000039
:10473400AB057E05DA0554057705640555050000CB
:1047440000002A0F0B01240D8B0F00000000E20F64
:10475400C50FB50F8C0F950F1D1127116E616E00DB
:10476400696E66006F7666000D0A006572726F727C
:104774003A20002F0041424344452E63737600499A
:104784006E697469616C697A696E67205344206349
:104794006172642E2E2E006361726420696E6974E6
:1047A40069616C697A65642E004361726420666194
:1047B400696C65642C206F72206E6F742070726552
:1047C40073656E7400525443206661696C656400BD
:1047D400546573742E6373760044656C6574696EF6
:1047E4006720437572656E74200020436F6E746594
:1047F4006E7400636F756C646E74206372656174AB
:10480400652066696C650054656D706572617475C8
:1048140072652C2048756D6964697479002C006D8B
:10482400696C6C69732C6461746574696D65004EA0
:104834006F2066696C65206973206F70656E2E0049
:104844002C20002020003A00577269746520746F90
:104854002066696C652E0053796E632077697468ED
:08486400206469736B2E000053
:00000001FF
